:1000000045C4000074C4000072C4000070C4000045
:100010006EC400006CC400006AC4000068C4000024
:1000200066C4000064C4000062C4000060C4000034
:100030005EC400005CC400005AC4000058C4000044
:1000400056C4000054C4000052C4000050C4000054
:100050004EC400004CC400004AC400000C94F70DCC
:1000600046C400000C949D0C0C94740C40C4000019
:100070003EC400003CC400003AC4000038C4000084
:1000800036C4000034C4000032C4000030C4000094
:100090002EC400002CC400002AC4000028C40000A4
:1000A00026C4000024C4000022C4000020C40000B4
:1000B0001EC400001CC400001AC4000018C40000C4
:1000C00016C4000014C4000012C4000010C40000D4
:1000D0000EC400000CC400000AC4000008C40000E4
:1000E00006C40000230928092D0937094109BA0966
:1000F0004B0953095B0965096F0979098809920958
:10010000BA099C09A609B009EE0CF10CE00CE40C4C
:10011000EA0C280DF50CF90CFF0C030D070D0D0D65
:10012000110D150D280D1B0D1F0D230D5F115911FC
:100130006F116711641114113111DB105665727360
:10014000696F6E3A200000002100240027002A0079
:100150002D003000330001010000040107010A01F5
:10016000646E7353657276657249503A2000676118
:10017000746577617949503A20006C6F63616C490E
:10018000503A20004661696C656420746F20636F8B
:100190006E6669677572652045746865726E657410
:1001A0000D0A54727920616761696E004574686553
:1001B000726E657420696E697469616C697A696EC2
:1001C000672E20506C6561736520776169742E2EEF
:1001D0002E005D005B00436F6E6E656374656400A6
:1001E000436F6E6E656374696F6E204661696C65FE
:1001F0006421005D0D0A436F6E6E65637420746F39
:1002000020736572766572005B000D0A230D0A2368
:100210000D0A230D0A002020203E203E203E203ED5
:10022000203E203E20202066616365626F6F6B2E4A
:10023000636F6D2F7461636B656C75612020203C6A
:10024000203C203C203C203C203C2020005468697D
:100250006574206269206E6179206368756120642D
:10026000756F632064616E67206B692C206861790B
:10027000206C69656E20686520766F692074616303
:100280002067696121200A303338373834353039F6
:10029000370A66616365626F6F6B2E636F6D2F74D3
:1002A00061636B656C7561004465766963652049BF
:1002B000443A20005D005B005472792061676169F7
:1002C0006E0054727920616761696E00506F7274BC
:1002D0003A2000446F6D61696E3A20004175746880
:1002E0003A20004661696C65642E20547279206161
:1002F0006761696E00476574204163636F756E7452
:1003000020426C796E6B000D0A202020205F5F5F19
:1003100020205F5F202020202020202020205F5FE1
:100320000D0A2020202F205F20292F202F5F205F03
:100330005F5F5F5F20202F202F5F5F0D0A20202F3F
:10034000205F20202F202F202F2F202F205F205CA8
:100350002F2020275F2F0D0A202F5F5F5F5F2F5F09
:100360002F5C5F2C202F5F2F2F5F2F5F2F5C5F5C38
:100370000D0A20202020202020202F5F5F5F2F20CB
:1003800076302E352E34206F6E2041726475696E82
:100390006F204D6567610D0A0066616365626F6F6E
:1003A0006B2E636F6D2F7461636B656C7561007488
:1003B00061636B656C756140676D61696C2E636F1D
:1003C0006D002D2D004465766963652049503A2003
:1003D0000056657273696F6E3A2000476974682031
:1003E00053797374656D0D0A4175746F6D6174692D
:1003F00063204D696E657273204D616E6167657231
:10040000000D0A0D0A0D0A0D0A0D0A0D0A0D0A0D3E
:100410000A0D0A0D0A0053797374656D2072756EAA
:100420006E696E6700436F6E6E656374696E6720F8
:10043000746F2000436F6E6E656374696E6720741D
:100440006F20006D73292E00526561647920287039
:10045000696E673A20000000200023002600290072
:100460002C002F00320000010000030106010901E9
:1004700005050505070508080808020202020A0A20
:10048000080804040404010101010101010103033E
:10049000030303030303040707070C0C0C0C0C0CE9
:1004A0000C0C0202020206060606060606060B0BE6
:1004B0000B0B0B0B0B0B0102102020080810204027
:1004C0001020408002010201080402010102040818
:1004D00010204080804020100804020180040201A6
:1004E00080402010080402010804020101020408EF
:1004F00010204080010204081020408000000A0BF8
:1005000002090C0D0E0807030401000000000000A2
:1005100000000000000000000000000000000000DB
:100520000000000000000000121110000000000098
:1005300000000000000000000000000000000000BB
:100540000000030C030C030C030C030C030C030C42
:10055000030C030C030C030C030C030C030C030C23
:10056000030C030C030C030C030C030C030C030C13
:10057000030C030C030C030C030C030C030C030C03
:10058000030C030C030C030C030C030C030C030CF3
:10059000030C030C030C030C030C030C030C030CE3
:1005A000030C030C030C030C030C030C030C030CD3
:1005B000030C030C030C030C030C030C030C030CC3
:1005C000030C030C030C030C030C030C030C030CB3
:1005D000030C030C030C030C030C030C030C030CA3
:1005E000030C030C030C030C030C030C030C030C93
:1005F000030C030C030C030C030C030C030C030C83
:10060000030C030C030C030C030C030C030C030C72
:10061000030C030C030C030C030C030C030C030C62
:10062000030C030C030C030C030C030C030C030C52
:10063000030C030C030C030C030C030C030C030C42
:10064000030CF81BE01BC81BB01B981B801B681B0E
:10065000501B381B201B081BF01AD81AC01AA81AE6
:10066000901A781A601A481A301A181A001AE819DB
:10067000D019B819020C020C020C020C020C020C6C
:10068000020C020C020C020C020C020C020C020CFA
:10069000020C020C020C020C020C020C020C020CEA
:1006A000020C020C020C020C020C020C020C020CDA
:1006B000020C020C020C020C020C020C020C020CCA
:1006C000020C020C020C020C020C020C020C020CBA
:1006D000020C020C020C020C020C020C020C020CAA
:1006E000020C020C020C020C020C020C020C020C9A
:1006F000020C020C020C020C020C020C020C020C8A
:10070000020C020C020C020C020C020C020C020C79
:10071000020C020C020C020C020C020C020C020C69
:10072000020C020C020C020C020C020C020C020C59
:10073000020C020C020C020C020C020C020C020C49
:10074000020C496E76616C696420485720636D64C1
:100750003A20005365727665723A200052656469EA
:1007600072656374696E6720746F200052656164FE
:1007700079005061636B657420746F6F20626967E4
:100780003A2000436F6E6E656374206661696C6524
:10079000642E20636F64653A2000496E76616C694F
:1007A00064206175746820746F6B656E004C6F67B0
:1007B000696E2074696D656F757400486561727447
:1007C000626561742074696D656F75740000002244
:1007D00000250028002B002E00310034000201000B
:1007E00000050108010B01626C6E6B696E66007694
:1007F000657200302E352E3400682D6265617400FC
:10080000313000627566662D696E00313032340019
:100810006465760041726475696E6F204D6567612D
:10082000006370750041546D656761323536300084
:10083000636F6E005735313030006275696C64004B
:1008400044656320313820323031382031363A3532
:10085000373A30390000005D20003E53657269610F
:100860006C3A20003E205465726D696E616C3A20CE
:100870000047656E657261746520004849443A20FE
:10088000004D41433A200000BD34903411241FBE76
:10089000CFEFD1E2DEBFCDBF00E00CBF14E0A0E09F
:1008A000B2E0EEEEF6E700E00BBF02C007900D925B
:1008B000A038B107D9F726E0A0E8B4E001C01D9246
:1008C000A03AB207E1F714E0C5E4D4E000E006C0C6
:1008D00021970109802FFE010E94153AC434D107E7
:1008E00080E00807A9F70E94982C0C94663B88CBFF
:1008F0002F923F924F925F926F927F928F929F9230
:10090000AF92BF92CF92DF92EF92FF920F931F931D
:10091000CF93DF93CDB7DEB7A6970FB6F894DEBFBF
:100920000FBECDBF5C012DB73EB73BA32AA360E04D
:1009300070E0CB010E94B30DD50157968D919C912B
:100940005897029709F41CC356968C9156978F5F5F
:1009500056968C93569754962D913C915597232BF0
:1009600009F0FDC1833008F0FAC1F5018081918161
:100970000E943316582E811111C00E94EB0D2B01DD
:100980003C01D5018D919C910E943316F501278978
:10099000308D2130310509F0E4C173C1FE0131967B
:1009A0004F01D501ED91FC9180819181DC01ED91A8
:1009B000FC910084F185E02D199518161906ECF6C6
:1009C000D501ED91FC91C080D180FE0177967F0129
:1009D00000E010E0C6010E94FE2897FD09C0D70183
:1009E0008D937D010F5F1F4F0530110599F704C0EE
:1009F000012B09F082C03BC1688C798C7624672476
:100A00007624798E688EEA8CFB8CFE24EF24FE24FB
:100A1000FB8EEA8E6114710409F46FC02F892111D5
:100A200074C00E94EB0DF501668377838087918700
:100A30008789908D892B09F062C06A94672809F034
:100A40005EC029E0E216F10409F443C038ECE31675
:100A5000F10429F044E0E416F10409F043C00E94D7
:100A6000C21E68E474E082E295E00E945C29D50130
:100A700016964D915D916D917C9119971E968D9171
:100A80009D910D90BC91A02D481B590B6A0B7B0BBF
:100A90002AE082E295E00E94952963E474E082E214
:100AA00095E00E94032AF50186819781A085B18592
:100AB00086879787A08BB18B21E030E0308F278B22
:100AC000C5010E94301460E070E0CB010E94B30DBC
:100AD000CEC00E94C21E6AE977E082E295E00E94E1
:100AE000032A0BC00E94C21E63E877E082E295E011
:100AF0000E945C29C7010E94132A70E0BBC035E048
:100B0000E316F10409F04DCFF8CF41E0E41644E0DC
:100B1000F406A8F00E94C21E62E777E082E295E048
:100B20000E945C29C7010E94132AD50158961C9285
:100B30001E9257978D919C910E94821C98C0EDB790
:100B4000FEB7F9A3E8A3C70101964DB75EB7481BEE
:100B5000590B0FB6F8945EBF0FBE4DBF0DB71EB751
:100B60000F5F1F4FD501ED91FC91C080D180A8018E
:100B7000212C312C2E143F0491F0C6012EA34CA33E
:100B80005DA30E94FE282EA14CA15DA197FD34C05B
:100B9000FA018193AF01FFEF2F1A3F0AEBCF6801F3
:100BA000C20CD31CD6011C922EA30E94EB0DF501A2
:100BB00066837783808791872EA1213109F4E2C172
:100BC000E8F0293209F0EAC1D50114968D919C9183
:100BD0001597892B39F480E290E00E94B335F50136
:100BE00095838483E00EF11E1A830983FC82EB82D5
:100BF0000E151F0508F43FC470E031C0263009F11E
:100C00002F3009F4D1C1223009F02BC4D5015796F9
:100C10008D919C915897892BA1F40E94C21E6CE67D
:100C200077E082E295E00E94032A21E030E0F501BE
:100C3000308F278BC5010E94301460E070E0CB013B
:100C400092D7C12CD12CE12CF12C08EC10E020E043
:100C500030E0A30160E0C5010E948F1C752DE8A162
:100C6000F9A10FB6F894FEBF0FBEEDBF01C0752D00
:100C7000711197CED5018D919C917CA30E94821C0D
:100C800076C1F501811109C046865786608A718A4E
:100C9000108E178A8081918121C086819781A085DD
:100CA000B185A3019201281B390B4A0B5B0BDA01BA
:100CB000C90189333AE49307A105B10590F00E9478
:100CC000C21E6BEB77E082E295E00E94032AD50119
:100CD00058961C921E9257978D919C910E94821C4F
:100CE00064C081319742A105B10590F4F501828578
:100CF0009385A485B585A3019201281B390B4A0B66
:100D00005B0BDA01C90181319742A105B10538F1C8
:100D1000F50186859785A089B189A3019201281BD9
:100D2000390B4A0B5B0BDA01C901893B9B40A105DA
:100D3000B105A8F0C12CD12CE12CF12C00E010E081
:100D400020E030E040E050E066E0C5010E948F1CEA
:100D5000D5011E964D925D926D927C92519771E0F5
:100D600007C1232BE1F7F501468557856089718915
:100D70008823E9F0441A550A660A770AF9EB4F16F8
:100D8000FBE05F066104710450F30E94C21E6DEA2D
:100D900077E082E295E00E94032AD5018D919C9133
:100DA0000E94821CF501108E178A70E0E1C0D30109
:100DB000C201841B950BA60BB70B89389341A10583
:100DC000B10568F2D5018D919C910E94821CF501BC
:100DD00000811181D80118968D919C911997892BCA
:100DE00071F10E94C21E64E374E082E295E00E9409
:100DF0005C29F8016085718582E295E00E94802976
:100E00006AE382E295E00E945529D8011A968D91F5
:100E10009C911B970E94132AF80180819181DC012B
:100E2000ED91FC91D8011A964D915C911B97189603
:100E30006D917C9119970088F189E02D64C00E9422
:100E4000C21E65E274E082E295E00E945C29D8014E
:100E500014964C9150E060E070E02AE082E295E068
:100E60000E9495296EE282E295E00E945529F801E0
:100E7000458150E060E070E02AE082E295E00E9467
:100E800095296EE282E295E00E945529D8011696D6
:100E90004C9150E060E070E02AE082E295E00E9430
:100EA00095296EE282E295E00E945529F80147817A
:100EB00050E060E070E02AE082E295E00E9495292F
:100EC00082E295E00E94DD29D8018D919C91DC01A0
:100ED000ED91FC910684F785E02DD8011A964D918D
:100EE0005C911B9722E333E03A8329831496CD90DB
:100EF000DD90ED90FC901797CB82DC82ED82FE8234
:100F0000BE016F5F7F4F199571E0019709F070E0A6
:100F1000F8017487711108C0D5011E964D925D923B
:100F20006D927C92519724C081E090E0F501938B03
:100F3000828B22813381F90101900020E9F73197FA
:100F40008F01021B130BC12CD12CE12CF12C41E0A1
:100F500050E062E0C5017CA30E948F1CF5018285F0
:100F60009385A485B58586879787A08BB18B7CA157
:100F7000D50156968C915697815056968C93F6C211
:100F800070E0F4C21A830983DC82CB820C151D0544
:100F900008F064CEC4010E949C3460CE273309F46B
:100FA000D4C2243109F05DC2D50155967C926E926F
:100FB00054976801CE0CDF1C1D8F0C8FDF8ECE8EF8
:100FC0000C151D0508F03DC2F80160807180CE014E
:100FD0004C960E949C34DC018D919C918C159D0552
:100FE00008F02FC28C8D9D8DFC012081213451F49D
:100FF00001960E9435378031910554F446E3342E32
:10100000380E08C0CE014C960E94AF34382E02C074
:1010100033243A94F6E76F16F2E77F0609F4B0C17D
:1010200098F431E6631632E7730609F4AFC044E67C
:10103000641642E7740609F45BC050E765165DE686
:10104000750609F0E0C134C084E6681687E77806C3
:1010500009F485C096E7691697E7790609F4AAC1ED
:10106000A1E66A16A7E77A0609F0CDC1B8C0FC016F
:101070002081213419F501960E9435378031910580
:101080001CF536E3F32EF80ECE014C960E949C34EC
:101090000C8D1D8D67E374E0C8010E94473B892BCE
:1010A000B1F460E08F2D04D5CE014C960E949C34A3
:1010B0008C8D9D8D8C159D05D0F2C3C1CE014C96B3
:1010C0000E94AF34F82EE0CFFF24FA94DDCF6AE31C
:1010D00074E0C8010E94473B892B09F4C0C16EE34C
:1010E00074E0C8010E94473B892B09F4B8C1ADC127
:1010F0009A8A898A1C8A1B8A20E130E03E8B2D8BDC
:1011000062E474E0CE0141960E94141E032D10E0AB
:10111000B801CE0141960E944C1EF801E450FB4FED
:101120008491F801EA54FB4FF490F801E059FB4F29
:101130000491002389F0811136D4E02FF0E0EE0F06
:10114000FF1FEA5AFB4FA591B491EC91FE2261E09A
:1011500070E099F560E031C060E070E02EC0CE0133
:101160004C960E949C34DC018D919C918C159D05C0
:1011700008F067C161E0832D9BD4CE014C960E949C
:10118000AF3461E0892B09F048C0F8C09A8A898A97
:101190001C8A1B8AE0E1F0E0FE8BED8B65E474E0D5
:1011A000CE0141960E94141E632D70E0CE0141963F
:1011B0000E944C1E832DB8D4BC01CE0141960E94E2
:1011C0004C1E0B891C890150110929893A89C12CAF
:1011D000D12CE12CF12C40E050E064E12FC1CE0194
:1011E0004C960E949C34DC018D919C918C159D0540
:1011F00008F027C161E0832D5BD4CE014C960E949C
:10120000AF348C0161E0832D53D40115110509F42D
:10121000B5C00F3F110521F461E0832D1AD411C12F
:10122000E32DF0E0E450FB4FE4918E2F90E0FC01C1
:101230003197E231F10508F09DC08827EE58FF4F45
:101240008F4F0C94153A84B5806884BD07BDF9C0F2
:1012500084B5806284BD08BDF4C080918000806840
:10126000809380001093890000938800EAC08091E9
:10127000800080628093800010938B0000938A002E
:10128000E0C08091800088608093800010938D0082
:1012900000938C00D6C08091B00080688093B0002D
:1012A0000093B300CEC08091B00080628093B00004
:1012B0000093B400C6C08091900080688093900035
:1012C0001093990000939800BCC0809190008062B8
:1012D0008093900010939B0000939A00B2C080917D
:1012E000900088608093900010939D0000939C0074
:1012F000A8C08091A00080688093A0008091A00089
:101300008F7B8093A0001093A9000093A80099C040
:101310008091A00080628093A0001093AB000093A6
:10132000AA008FC08091A00088608093A0001093D5
:10133000AD000093AC0085C080912001806880934F
:10134000200110932901009328017BC08091200186
:1013500080628093200110932B0100932A0171C0B9
:101360008091200188608093200110932D010093CB
:101370002C0167C0003811050CF04ECF60E04DCF56
:101380003982E32DF0E0E038F10508F05AC0EE0FA5
:10139000FF1FEE5BFA4F259134912115310509F4B9
:1013A00050C0BCE023303B0709F44BC0C401F90135
:1013B000199547C0CE014C960E949C348C8D9D8D12
:1013C000081B190BE00EF11E9A838983FC82EB82C5
:1013D000FE82ED82398AE32DF0E0E038F10588F5F0
:1013E000EE0FFF1FEE5BF94F25913491211531056A
:1013F00041F1FCE022303F0721F1B401CE014196DA
:10140000F90119951EC00E94C21E62E477E082E2D3
:1014100095E00E945C29B80182E295E00E94F329E0
:10142000D50154964D915C915597C12CD12CE12C4E
:10143000F12C02E010E020E030E060E0C5010E9405
:101440008F1CF501158A148A09CC68E474E0C80180
:101450000E94473B892B09F027CE62E023CE61E052
:1014600021CED50158961C921E9257978D919C9132
:101470000E94821CF3CB40E250E0B801D5011496E3
:101480008D919C9115970E94573BC4010E949C34FA
:10149000FC01808191818E159F0578F489819A8164
:1014A000009731F02B813C818217930708F44AC0E2
:1014B00060E070E0CB018B0102C000E510E00E940B
:1014C000C21E6CE577E082E295E00E945C29D501BE
:1014D00014966D917C91159782E295E00E94802987
:1014E0006AE382E295E00E945529C8010E94132A0E
:1014F000F501808191810E94821CD501ED91FC91C2
:10150000119714968D919C911597918780871387D9
:10151000028758961C921E9257975DD3DC01CB012F
:1015200088589341A109B109F50182879387A4875F
:10153000B58786839783A087B18786879787A08B97
:10154000B18B8CCB0E945237B6CF232809F486CBBF
:101550000E94C21E63E577E082E295E00E945C296A
:10156000B80182E295E00E94F32978CB872F2AA167
:101570003BA10FB6F8943EBF0FBE2DBFA6960FB687
:10158000F894DEBF0FBECDBFDF91CF911F910F91B9
:10159000FF90EF90DF90CF90BF90AF909F908F9093
:1015A0007F906F905F904F903F902F900895FC0137
:1015B000538D448D252F30E0842F90E0821B930BB8
:1015C000541710F0CF96089501970895FC01918D5E
:1015D000828D981761F0828DDF01A80FB11D5D9695
:1015E0008C91928D9F5F9F73928F90E008958FEF03
:1015F0009FEF0895FC01918D828D981731F0828DB7
:10160000E80FF11D858D90E008958FEF9FEF08950D
:10161000FC01918D228D892F90E0805C9F4F821B71
:1016200091098F739927089582E295E0F1DF21E017
:10163000892B09F420E0822F0895FC01848DDF01BD
:10164000A80FB11DA35ABF4F2C91848D90E0019635
:101650008F739927848FA689B7892C93A089B18924
:101660008C9180648C93938D848D981306C002882E
:10167000F389E02D80818F7D80830895EF92FF9222
:101680000F931F93CF93DF93EC0181E0888F9B8DA5
:101690008C8D981305C0E889F989808185FD23C068
:1016A000F62E0B8D10E00F5F1F4F0F731127E02EEA
:1016B0008C8DE8120BC00FB607FCFACFE889F989C8
:1016C000808185FFF5CFCE01B8DFF2CF8B8DFE0193
:1016D000E80FF11DE35AFF4FF0820B8FEA89FB8977
:1016E0008081806207C0EE89FF896083E889F9897B
:1016F00080818064808381E090E0DF91CF911F91B1
:101700000F91FF90EF900895CF93DF93EC01888DB8
:101710008823C1F0EA89FB89808185FD05C0A889FD
:10172000B9898C9186FD0EC00FB607FCF5CF80817C
:1017300085FFF2CFA889B9898C9185FFEDCFCE01C5
:101740007CDFE8CFDF91CF91089580E090E0892B96
:1017500019F06ADF811125C080E090E0892B41F00B
:1017600080E090E0892B21F00E94000081111CC0D4
:1017700080E090E0892B41F080E090E0892B21F01F
:101780000E940000811113C080E090E0892BA1F03D
:1017900080E090E0892B81F00E94000081110AC056
:1017A00008950E940000D8CF0E940000E1CF0E945F
:1017B0000000EACF0C94000008953FB7F8948091A0
:1017C000EE049091EF04A091F004B091F10426B5DD
:1017D000A89B05C02F3F19F00196A11DB11D3FBF69
:1017E000BA2FA92F982F8827820F911DA11DB11DF7
:1017F000BC01CD0142E0660F771F881F991F4A95F3
:10180000D1F70895089508958F929F92AF92BF9255
:10181000CF92DF92EF92FF920F931F93CF93DF93BC
:101820007C018B016C0182E0C80ED11C4701E5E010
:101830008E0E911CC0E0D0E0F60141916F0150E0A6
:1018400060E070E02AE0C8010E9495295C016EE228
:10185000C8010E9455298A0D9B1DC80FD91FC814A5
:10186000D90451F7F701458150E060E070E02AE0CB
:10187000C8010E9495298C0F9D1FDF91CF911F9168
:101880000F91FF90EF90DF90CF90BF90AF909F901F
:101890008F9008950E941C3B1F93CF93DF93182FC6
:1018A00066E270E00E941218C82FD0E067E270E094
:1018B000812F0E941218DC2FCC279E01282BC901F2
:1018C000DF91CF911F91089522E333E0FC01318332
:1018D0002083FB014081518162817381FC0142833D
:1018E00053836483758308951F920F920FB60F92EE
:1018F00011240BB60F922F933F934F935F936F93E7
:101900007F938F939F93AF93BF93EF93FF9382E265
:1019100095E093DEFF91EF91BF91AF919F918F91F1
:101920007F916F915F914F913F912F910F900BBEDF
:101930000F900FBE0F901F9018951F920F920FB629
:101940000F9211240BB60F922F938F939F93EF93C7
:10195000FF93E0913205F09133058081E0913805E5
:10196000F091390582FD12C0908180913B058F5F17
:101970008F7320913C05821751F0E0913B05F0E018
:10198000EE5DFA4F958F80933B0501C08081FF91FA
:10199000EF919F918F912F910F900BBE0F900FBEE3
:1019A0000F901F90189590E0FC013197E231F105FE
:1019B00008F04EC08827EC57FF4F8F4F0C94153A14
:1019C000809180008F7703C0809180008F7D80930D
:1019D0008000089580918000877FF9CF84B58F774C
:1019E00002C084B58F7D84BD08958091B0008F774B
:1019F00003C08091B0008F7D8093B00008958091E6
:101A000090008F7707C0809190008F7D03C08091F8
:101A10009000877F8093900008958091A0008F7739
:101A200007C08091A0008F7D03C08091A000877FB8
:101A30008093A0000895809120018F7707C0809146
:101A400020018F7D03C080912001877F809320013A
:101A500008951F93CF93DF93282F30E0F901E450CE
:101A6000FB4F8491F901EA54FB4FD491F901E059FD
:101A7000FB4FC491CC23C1F0162F811194DFEC2FC2
:101A8000F0E0EE0FFF1FE353F84FA591B4918FB72D
:101A9000F894111105C09C91ED2FE095E92302C047
:101AA000EC91ED2BEC938FBFDF91CF911F910895B7
:101AB000CF93DF9390E0FC01EA54FB4F2491FC01AB
:101AC000E059FB4F8491882361F190E0880F991FC2
:101AD000FC01EA5BFE4FC591D491FC01E353F84F42
:101AE000A591B491611109C09FB7F89488812095A0
:101AF00082238883EC912E230BC0623061F49FB760
:101B0000F8943881822F809583238883EC912E2B43
:101B10002C939FBF06C08FB7F894E8812E2B2883A3
:101B20008FBFDF91CF910895863308F0865390914F
:101B30007B00282F2870977F922B90937B008770D3
:101B4000806480937C0080917A00806480937A0026
:101B500080917A0086FDFCCF8091780020917900F9
:101B600090E0922B08958F929F92AF92BF92CF9266
:101B7000DF92EF92FF926B017C011FDE4B015C0153
:101B8000C114D104E104F104E9F017DEDC01CB015A
:101B900088199909AA09BB09883E9340A105B10596
:101BA00078F321E0C21AD108E108F10888EE880E26
:101BB00083E0981EA11CB11CC114D104E104F104FE
:101BC00021F7DECFFF90EF90DF90CF90BF90AF90E6
:101BD0009F908F9008952FB7F8946091EA047091C8
:101BE000EB048091EC049091ED042FBF08951F92B7
:101BF0000F920FB60F9211242F933F938F939F93C1
:101C0000AF93BF938091EA049091EB04A091EC0410
:101C1000B091ED043091E90423E0230F2D3720F437
:101C20000196A11DB11D05C026E8230F0296A11D36
:101C3000B11D2093E9048093EA049093EB04A093F0
:101C4000EC04B093ED048091EE049091EF04A09128
:101C5000F004B091F1040196A11DB11D8093EE0432
:101C60009093EF04A093F004B093F104BF91AF916F
:101C70009F918F913F912F910F900FBE0F901F90CA
:101C800018952C9A08952C9808951F93CF93DF935D
:101C9000182F60E270E00E941218C82FD0E061E2B5
:101CA00070E0812F0E941218DC2FCC279E01282B78
:101CB000C901DF91CF911F9108958EBD00000DB431
:101CC00007FEFDCF8EB50895CF92DF92EF92FF927F
:101CD0000F931F93CF93DF93EC017A018B016C017B
:101CE000C40ED51ECC15DD0579F0CDDF8FE0E5DF24
:101CF0008D2FE3DF8C2FE1DF219680E0DEDFF8011E
:101D000081938F01BEDFEECFC701DF91CF911F918D
:101D10000F91FF90EF90DF90CF900895CF92DF92D8
:101D2000EF92FF920F931F93CF93DF93EC017A0111
:101D30008B016C01C40ED51ECC15DD0571F0A3DF3F
:101D400080EFBBDF8D2FB9DF8C2FB7DF2196F80135
:101D500081918F01B2DF95DFEFCFC701DF91CF9186
:101D60001F910F91FF90EF90DF90CF9008951F93F8
:101D7000CF93DF931F921F92CDB7DEB7182F6A83E0
:101D8000998381DF80EF99DF9981892F96DF812FF9
:101D900094DF6A81862F91DF74DF81E00F900F90CE
:101DA000DF91CF911F9108951F93CF93DF931F92DF
:101DB0001F92CDB7DEB7182F80E590E069837A8354
:101DC0000E941F2121E041E050E069817A81812F4A
:101DD0000E94B62A0E94C71F81E090E00F900F90EA
:101DE000DF91CF911F910895FF920F931F93CF938F
:101DF000DF93F82E80E590E00E941F21C0E0D0E044
:101E00008F2D4ADD8C01892B19F08F2D45DDEC01DA
:101E1000C017D107A9F70E94C71FCE01DF91CF914C
:101E20001F910F91FF900895AF92BF92CF92DF92D2
:101E3000EF92FF921F93CF93DF93182F5B017A01EC
:101E400080E590E00E941F21C0E0D0E0812F24DDDA
:101E50006C01892B19F0812F1FDDEC01CC15DD05FC
:101E6000A9F7209799F463E070E0812F0E9412187F
:101E70008431F1F08823E1F0C1E0D0E08C3111F43D
:101E8000C0E0D0E0D195C195D10912C0EC16FD0695
:101E90000CF4E7011C161D065CF420E0AE01B50150
:101EA000812F0E94B62A60E470E0812F0E94252ACB
:101EB0000E94C71FCE01DF91CF911F91FF90EF903D
:101EC000DF90CF90BF90AF900895CF93C82F80E55B
:101ED00090E00E941F2160E170E08C2F0E94252A73
:101EE0004FEF62E070E08C2F0E940818CF910C94A5
:101EF000C71FFF920F931F93CF93DF931F921F92E1
:101F0000CDB7DEB7F82E8A012A836983DEDF80E54C
:101F100090E00E941F212A816981462F422B60E0B8
:101F200070E08F2D0E9408180115110551F40091E1
:101F3000E7041091E8040F5F1F4F1093E80400932B
:101F4000E704412F64E070E08F2D0E940818402FB5
:101F500065E070E08F2D0E94081861E070E08F2D21
:101F60000E94252A0E94C71F81E00F900F90DF91E9
:101F7000CF911F910F91FF9008950F931F93CF93CF
:101F8000DF931F921F92CDB7DEB78C01DC01ED917C
:101F9000FC918081918169831A8241E050E0BE0109
:101FA0006F5F7F4F0E94C927F8018281938101965C
:101FB000938382830F900F90DF91CF911F910F91A8
:101FC0000895EF92FF920F931F93CF93DF93EC014D
:101FD000E880F980D7018D919C91FC0104811581E5
:101FE0006115710551F0FB0101900020E9F731976F
:101FF000AF01461B570B0E94C927D701ED91FC91F9
:10200000848195812A813B81280F391F201B310B48
:102010003B832A83DF91CF911F910F91FF90EF9027
:1020200008950F931F93CF93DF93CDB7DEB76697D5
:102030000FB6F894DEBF0FBECDBF8C01CB011E8A58
:10204000FE0176962AE030E0B9010E94023A90E360
:10205000980F9293CB010097B9F7BF01C801B1DF88
:1020600066960FB6F894DEBF0FBECDBFDF91CF915D
:102070001F910F9108958F929F92AF92BF92EF920E
:10208000FF920F931F93CF93DF93CDB7DEB7669781
:102090000FB6F894DEBF0FBECDBF7C011E8A8E0145
:1020A0000A5E1F4F8AE0882E912CA12CB12CCB0107
:1020B000BA01A50194010E943739942F852F605DE4
:1020C000F80162938F01A901692F782F41155105FD
:1020D0006105710561F7BF01C70173DF66960FB631
:1020E000F894DEBF0FBECDBFDF91CF911F910F914E
:1020F000FF90EF90BF90AF909F908F900895FF92C8
:102100000F931F93CF93DF936115710541F46DE237
:1021100074E0DF91CF911F910F91FF9052CF8B010F
:10212000EC0162E2CE0129DFF80161918F016623A3
:1021300051F0EBE4F4E0F080FF20A1F391819617D9
:1021400051F03296F8CF62E2CE01DF91CF911F912C
:102150000F91FF9012CF6CE5CE010FDF6F2DE2CF14
:102160002F923F924F925F926F927F928F929F92A7
:10217000AF92BF92CF92DF92EF92FF920F931F9395
:10218000CF93DF93CDB7DEB76A970FB6F894DEBF73
:102190000FBECDBFDC01ED91FC9111973197E83076
:1021A000F10508F014C28B017C018827EA56FF4F25
:1021B0008F4F0C94153AFD01C280D380E480F580E6
:1021C000A7019601C701B6010E94D937882319F0EB
:1021D00065E674E092C020E030E0A901C701B601D5
:1021E0000E94D93787FF07C06DE2C801C6DEF7FA43
:1021F000F094F7F8F09420E030E0A901C701B601AF
:102200000E94D937882309F47BC0A7019601C70132
:10221000B6010E946939A70196010E94D937811140
:102220006FC06CE674E069C01296ED90FC90139755
:102230006BE5C801A2DEF701E280F380E114F1044E
:1022400051F0B801C70102968BDFD701ED90FC90E9
:10225000E114F10411F46DE529C06CE2C8018DDED2
:10226000EDCFFD01E280F3806BE7C80186DED70188
:102270001296ED90FC90139703C06CE2C8017DDECE
:10228000E114F10491F0F70162817381C80137DF35
:102290006AE3C80172DEB801C701049661DFD701A5
:1022A000ED90FC90E114F10441F76DE7C80165DEA3
:1022B0008EC1FD0162817381C80121DF88C1129640
:1022C0006D917C91139719C06DE2C80156DEF7013C
:1022D0004281538164817581C801CDDE78C1FD01E1
:1022E00082819381A481B581892B8A2B8B2B19F450
:1022F0006FE574E002C06AE574E0C80162DE67C1A0
:1023000020E836E948E15BE4C701B6010E94FE39E6
:1023100087FD55C1412C512C70E2672E712C812C08
:10232000912CF201EA53FD4F24893589468957895A
:10233000C701B6010E94FE3987FD0FC0F201E255C8
:10234000FD4F2489358946895789C701B6010E9406
:102350003E386B017C01860C971C75946794F4E001
:102360004F1A510888EE48168FEF5806D1F65524BB
:102370005A9420E030E0A901C701B6010E94FE395D
:10238000181694F52CEA35EC47E257E3C701B6017D
:102390000E94D937181644F1BFEF5B1629F1952D2D
:1023A000A4E09A0250011124F501EA56FD4F208164
:1023B000318142815381C701B6010E94D93787FF1D
:1023C0000FC0F501EA53FD4F2081318142815381D5
:1023D000C701B6010E943E386B017C018618970840
:1023E000759467945A94D8CFC701B6010E94D23928
:1023F0002B013C016B8B7C8B8D8B9E8B46E0A42E3E
:1024000080E492E4AFE0B0E08F8B988FA98FBA8F11
:10241000BA2CAA24AA94AB0C8B899C89AD89BE895D
:102420000A97A105B105E8F06F89788D898D9A8D9D
:102430002AE030E040E050E00E9437392F8B388F9F
:10244000498F5A8F6B897C898D899E892AE030E07B
:1024500040E050E00E9437392B8B3C8B4D8B5E8BDC
:10246000D7CFC301B2010E94DD379B01AC01C70188
:10247000B6010E9468396B017C016F89788D898D66
:102480009A8D0E94DD379B01AC01C701B6010E9405
:102490003E386B8B7C8B8D8B9E8B0E94D2396B016F
:1024A0007C010E94DD379B01AC016B897C898D89A1
:1024B0009E890E9468399B01AC010E9469390E9483
:1024C000D239C60ED71EE81EF91E8F89988DA98DA8
:1024D000BA8DC816D906EA06FB0610F19FEF491A15
:1024E000590A690A790A8114910489F0AAE04A1606
:1024F00051046104710458F0BFEF8B1A9B0AC12C80
:10250000D12C7601412C512C3201439409C0C12CAD
:10251000D12C760105C01B147CF469017A01BA94B0
:10252000C701B6012AE030E040E050E00E943739B0
:10253000672B682B692B79F3AB2CB301A201C8017F
:102540009ADDBB2039F1188A3E01E0E16E0E711C64
:102550007A8A698A2AE0222E312C412C512CAA94A5
:10256000BFEFAB1669F0C701B601A20191010E944D
:102570003739605DD3016E933D0169017A01EFCF78
:1025800069897A896B1971098EE2FB018293BF0117
:10259000C80117DD97FE09C069E674E0C80111DDC6
:1025A000662777276819790907C08114910479F0A3
:1025B00065E6C801E2DCB401C80133DD08C080E291
:1025C000682E712C95E0592E812C912CD2CE6A96D2
:1025D0000FB6F894DEBF0FBECDBFDF91CF911F9134
:1025E0000F91FF90EF90DF90CF90BF90AF909F90B2
:1025F0008F907F906F905F904F903F902F900895B5
:10260000CF92DF92EF92FF920F931F93CF93DF93BE
:102610008C017B01DC011596CD91DC9116976B0145
:102620006C177D0708F46E01C60106960E94B3354B
:10263000FC01892BB1F0D382C282D80113968D910F
:102640009C911497918380831496FC93EE93139737
:10265000CC0FDD1F1696DC93CE931597F582E4829E
:102660003696CF01DF91CF911F910F91FF90EF90A0
:10267000DF90CF900895DC011396ED91FC911497B3
:10268000309751F024813581AB01420F531FA28155
:10269000B381A417B50708F4B3CFC90106965583D3
:1026A00044838E0F9F1F0895FF920F931F93CF9324
:1026B000DF93EC01F62E88819981FC01A381B4811E
:1026C000109771F01496ED91FC9115979F012F5F73
:1026D0003F4F12964D915C9113974217530750F557
:1026E0002C813D81B9016F5F7F4F8ADF8C016A8148
:1026F0007B816115710549F00115110571F04C815F
:102700005D81C8010E943E3B03C00115110529F0FF
:10271000EC81FD81E00FF11FF0821B830A838C8125
:102720009D8101969D838C83DF91CF911F910F91A5
:10273000FF9008953696EA0FFB1F15963C932E9353
:10274000149760838C819D81892B49F7FB83EA83F1
:10275000E6CF0C94FD380F931F93CF93DF938B013B
:10276000FC01C281D3812097A9F06A817B81011588
:10277000110519F06115710521F40617170731F4D9
:1027800009C0C8010E94473B892B21F00990D881DC
:10279000C02DE9CFCE01DF91CF911F910F91089508
:1027A000FC01A081B1818C918D3051F024F48950CD
:1027B0008230B8F505C0803219F08F3219F00895D3
:1027C00011962CC011968C9111978A3219F08F3284
:1027D000D1F008951196B183A083A081B181CD017C
:1027E00001969183808311968C9111978823C9F06B
:1027F0008A3299F712968C9112978F3271F713964D
:102800000DC08A3071F2A081B181CD010196918312
:10281000808311968C918111F4CF03C0B183A08382
:10282000C0CF08950F931F93CF93DF931F92CDB71F
:10283000DEB78C016983B4DFD801ED91FC9111976B
:1028400080816981861305C03196ED93FC9381E008
:1028500001C080E00F90DF91CF911F910F910895FB
:10286000AF92BF92CF92DF92EF92FF920F931F939E
:10287000CF93DF93CDB7DEB7C656D1090FB6F89424
:10288000DEBF0FBECDBF5C0146E650E06FEE77E0E5
:10289000CE0101960E947837C12CD12CE12CF12C6D
:1028A00006E610E09E012F5F3F4F40E050E061E1FF
:1028B000C5010E948F1CCA59DF4F0FB6F894DEBFC6
:1028C0000FBECDBFDF91CF911F910F91FF90EF9081
:1028D000DF90CF90BF90AF900895CF92DF92EF92AC
:1028E000FF920F931F93CF93DF93CDB7DEB72C9753
:1028F0000FB6F894DEBF0FBECDBF8C01CB01BA017D
:102900002ADF7C01009709F444C0FC01C480D58013
:10291000F1E0CF16D10461F4FC0166817781611585
:10292000710531F08DE294E00E94473B892B69F0FC
:10293000F1E0CF1AD10882E0C816D10430F4F701D3
:10294000668177816115710531F569E574E0CE0125
:1029500001966C010E94A628DC86CB86CE010B96E0
:1029600098878F831A861986BE01695F7F4FC701DA
:102970000496F6DBF801118210821382128215820E
:102980001482B601C8010E94F627C6010E94A12840
:1029900005C069E574E0C8010E94A628C8012C960C
:1029A0000FB6F894DEBF0FBECDBFDF91CF911F9160
:1029B0000F91FF90EF90DF90CF900895EF92FF92EC
:1029C0001F93CF93DF9300D000D0CDB7DEB77C014B
:1029D000DC0114968D919C9115979A8389831C82B2
:1029E0001B821E821D82C7010296DADED701129673
:1029F000ED91FC9113971081173231F1123221F1D0
:102A000080ED810F8A3078F081EA810F8C3158F0A7
:102A10008FEB810F8A3138F01B3229F083ED810F63
:102A2000823008F042C0F70182819381019693833E
:102A30008283612FCE01019637DED7011296ED9188
:102A4000FC9113971081DCCF3196D7011396FC933C
:102A5000EE931297D7011296ED91FC911397608136
:102A6000662319F1CF01019613969C938E931297CA
:102A70006117D9F06C35A9F46181AFE4B4E08C91B1
:102A8000882339F0861303C011966C9102C0129608
:102A9000F6CF662351F03296D7011396FC93EE934E
:102AA0001297CE01019600DED5CF60E0CE010196EF
:102AB000FBDD8B819C8126960FB6F894DEBF0FBE9E
:102AC000CDBFDF91CF911F91FF90EF9008959F921E
:102AD000AF92BF92CF92DF92EF92FF920F931F932C
:102AE000CF93DF9300D000D0CDB7DEB7FC01968145
:102AF000911112C08091F60481110BC01092F30461
:102B00001092F2041092F5041092F40481E0809384
:102B1000F60402EF14E094C07F0191509683008187
:102B20001181B80184E090E00E94D61E009739F030
:102B3000FC0111830083138212828C0111C08091E9
:102B4000F60481110BC01092F3041092F20410925B
:102B5000F5041092F40481E08093F60402EF14E08F
:102B60006701F2E0CF0ED11C6BE7C6015BDE882364
:102B700009F4C0CF6DE7C60155DE81115DC086E066
:102B8000982EC7011BDF5C01892B09F4B3CF6AE3E0
:102B9000C60148DE882309F4ADCF1A821982BE012E
:102BA0006F5F7F4FC7010E94C126882309F4A2CF1F
:102BB000B501C801D0DDDC01892B59F5F801608130
:102BC00071818AE090E00E94D61EDC01892B39F0E9
:102BD00011961C921E9215961C921E921497F80143
:102BE000228133812115310551F0F90180819181D4
:102BF000009711F09C01F9CFB183A08303C0F801C5
:102C0000B383A283109709F475CF1396BC92AE924A
:102C10001297FE0131961496892D01900D928A9596
:102C2000E1F76DE7C601FEDD811106C06CE2C60169
:102C3000F9DD8111A6CF5ECFF70186818F5F868394
:102C4000C80126960FB6F894DEBF0FBECDBFDF9148
:102C5000CF911F910F91FF90EF90DF90CF90BF9099
:102C6000AF909F900895FC019485992369F080812D
:102C70009181DC01ED91FC910688F789E02D199591
:102C800091E0811101C090E0892F08950895CF93BC
:102C9000DF931F92CDB7DEB76983DC01ED91FC9124
:102CA0000280F381E02D41E050E0BE016F5F7F4F75
:102CB00019950F90DF91CF910895FC01818D928D30
:102CC0000895FC0184899589089522E333E0FC018D
:102CD00031832083FB014089518962897389FC011A
:102CE00042835383648375830895DC01ED91FC91E5
:102CF000048CF58DE02D199480E00895FC019485F5
:102D0000FB018485981303C081E0943009F480E0CE
:102D1000089521E0FC018485843009F420E0822FAD
:102D20000895CF93DF931F92CDB7DEB7FC01218DBD
:102D3000328D232B41F0BE016F5F7F4F808D34D8E1
:102D4000898190E002C08FEF9FEF0F90DF91CF91CC
:102D50000895CF93DF93FC01218D328D211531052C
:102D600019F48FEF9FEF10C0EC014217530708F0E2
:102D7000A901888D59D8181619069CF7298D3A8D06
:102D8000281B390B3A8F298FDF91CF9108950F932C
:102D90001F93CF93DF931F92CDB7DEB7FC01218D38
:102DA000328D232B59F08C0141E050E0BE016F5F62
:102DB0007F4F808D39D8181619061CF08FEF9FEFC2
:102DC00008C0F801818D928D0197928F818F898142
:102DD00090E00F90DF91CF911F910F9108950F9385
:102DE0001F93CF93DF93CDB7DEB728970FB6F89434
:102DF000DEBF0FBECDBF8C01F801818D928D892B76
:102E000049F0D801ED91FC910284F385E02DC801D1
:102E10001995F2CF808D0E94F40E181619065CF5F4
:102E200048E050E0BE016F5F7F4FD80158968C910B
:102E30000E94140F9C0118161906DCF489819A81EE
:102E4000AB81BC81F801808B918BA28BB38B8D8180
:102E500090E0982F88272E81820F911D958B848B6F
:102E60002F8130E0322F22278885280F311D328FA5
:102E7000218FC90102C080E090E028960FB6F89437
:102E8000DEBF0FBECDBFDF91CF911F910F9108958F
:102E9000AF92BF92CF92DF92FF920F931F93CF9387
:102EA000DF938C015B01EA01FC01C688D788F08CB6
:102EB00080E590E00E941F218F2D0E949A2A8C1796
:102EC0009D0720F48F2D0E949A2AEC019E01A501F6
:102ED000B6018F2D0E94352A0E94C71FF8018689EE
:102EE00097898C0F9D1F978B868BCE01DF91CF9199
:102EF0001F910F91FF90DF90CF90BF90AF900895FA
:102F0000CF92DF92EF92FF920F931F93CF93DF93B5
:102F1000CDB7DEB7AF970FB6F894DEBF0FBECDBF0B
:102F20007C016A0102E313E01A8309831C861B8675
:102F300088EE93E0A0E0B0E08D879E87AF87B88BE6
:102F40008CE692E09A878987188F0F8B198E1A8EDC
:102F50001B8E1C8E84E089A31DA30CA31EA21FA29E
:102F600018A619A68091C1059091C205A091C3052C
:102F7000B091C4058CA79DA7AEA7BFA78B839C83E8
:102F8000AD83BE8318861F82AE014C5D5F4FCE01BC
:102F900001960E94222181309105B1F4D701ED9173
:102FA000FC910488F589E02D1BA70AA78EA19FA19B
:102FB000A8A5B9A58CA79DA7AEA7BFA7A601BE01CE
:102FC000665D7F4FC7011995AF960FB6F894DEBFC7
:102FD0000FBECDBFDF91CF911F910F91FF90EF906A
:102FE000DF90CF900895CF93DF93EC01888D8430EC
:102FF00061F00E94650FE88DF0E0EE0FFF1FE250D8
:10300000FB4F1182108284E0888FDF91CF91089569
:103010009B0190E00496982F8827642F820F931FBE
:103020000C94B70E0F931F93CF93DF931F92CDB7DE
:10303000DEB790E00496982F88278C01060F171FA3
:103040000E94430E8FE00E945D0E812F0E945D0E54
:10305000802F0E945D0E80E00E945D0E89830E9499
:10306000410E89810F90DF91CF911F910F910895AB
:103070001F93CF93DF931F92CDB7DEB7182F80E554
:1030800090E00E941F2163E070E0812FCBDF8983F5
:103090007ED789810F90DF91CF911F910895EF9294
:1030A000FF921F93CF93DF93FC01208D243011F00A
:1030B00080E01BC07B01EC0110E0812FD9DF811182
:1030C00002C0188F05C08831E1F31F5F1430A9F7E3
:1030D000888D843069F3FD86EC861A8E198E20E087
:1030E000A70162E00E94790F81E0DF91CF911F91EB
:1030F000FF90EF900895CF93FC01C08D80E590E0A4
:103100000E941F2160E270E08C2F0E94252A62E05D
:1031100070E08C2F87DF84FD15C062E070E08C2F9B
:1031200081DF83FF09C048E162E070E08C2F70DF2F
:103130002ED780E090E00EC02AD780E590E00E9474
:103140001F21E5CF40E162E070E08C2F61DF1FD7E7
:1031500081E090E0CF910895CF93DF93C82FD62FD1
:10316000472F60E170E054DF4D2F61E170E08C2F5C
:10317000DF91CF914DCFBF92CF92DF92EF92FF922E
:103180000F931F93CF93DF9300D000D0CDB7DEB75E
:10319000FC01208D243009F051C06A017B018C01B3
:1031A000B12C63E070E08B2D3DDF811103C0F8018D
:1031B000B08E06C08831D9F3B394F4E0BF12F1CFDA
:1031C000F801808D8430D1F196E0EEEDF2E0DE0181
:1031D000119601900D929A95E1F7F70193819F77EF
:1031E0009C8394819D8395819E83B7016E5F7F4F01
:1031F00090E0982F882744E050E0845F9B4F0E9426
:103200008E0EB601F801808DA7DFF801808D90E069
:10321000982F882746E050E0BE016F5F7F4F8A5F9E
:103220009B4F0E948E0EF801128E118E20E8A6018F
:1032300062E0808D0E94790F81E001C080E02696D7
:103240000FB6F894DEBF0FBECDBFDF91CF911F91B7
:103250000F91FF90EF90DF90CF90BF900895FF9275
:103260000F931F93CF93DF93FB01DC0157961C92C2
:103270001E9256975896FC908281811109C08381D5
:10328000811106C08481811103C085818823E1F00A
:1032900041155105C9F08A01EF0180E590E0CFD7D3
:1032A000BE016E5F7F4F2F2D30E0922F882744E0C4
:1032B00050E0845F9B4F0E948E0EB8018F2D4CDF33
:1032C00066D681E090E002C080E090E0DF91CF918F
:1032D0001F910F91FF900895FC018485843009F0BF
:1032E000C7CE80E00895CF93DF93FC01248524307E
:1032F000C9F0EC01F1DF843181F0882371F088316D
:1033000061F08C3161F4E881F9810084F185E02D70
:10331000CE01199521E0892B19F420E001C021E0AC
:10332000822F01C080E0DF91CF910895DC01ED9103
:10333000FC910280F381E02D1994FC01EB5BFF4FBF
:10334000308121E0230F2083FC01E30FF11D658311
:10335000203438F0DC01ED91FC910680F781E02DFE
:10336000199581E090E00895089580E090E0089537
:10337000CF93DF93EB0161E08DE00E94290D8881FE
:1033800099810E94353761E0892B09F060E08EE079
:103390000E94290D60E08DE0DF91CF910C94290D02
:1033A000CF93DF93EB0161E08DE00E94290D8881CE
:1033B00099810E94353761E0892B09F060E08FE048
:1033C0000E94290D60E08DE0DF91CF910C94290DD2
:1033D000CF93DF93EB0161E08DE00E94290D88819E
:1033E00099810E94353761E0892B09F060E080E126
:1033F0000E94290D60E08DE0DF91CF910C94290DA2
:10340000CF93DF93EB0161E08DE00E94290D88816D
:1034100099810E94353761E0892B09F060E081E1F4
:103420000E94290D60E08DE0DF91CF910C94290D71
:10343000CF93DF93EB0161E08DE00E94290D88813D
:1034400099810E94353761E0892B09F060E082E1C3
:103450000E94290D60E08DE0DF91CF910C94290D41
:10346000CF93DF93EB0161E08DE00E94290D88810D
:1034700099810E94353761E0892B09F060E083E192
:103480000E94290D60E08DE0DF91CF910C94290D11
:10349000CF93DF93EB0161E08DE00E94290D8881DD
:1034A00099810E94353761E0892B09F060E084E161
:1034B0000E94290D60E08DE0DF91CF910C94290DE1
:1034C000CF93DF93EB0161E08DE00E94290D8881AD
:1034D00099810E94353761E0892B09F060E085E130
:1034E0000E94290D60E08DE0DF91CF910C94290DB1
:1034F000CF93DF93EB0161E08DE00E94290D88817D
:1035000099810E94353761E0892B09F060E08AE2F9
:103510000E94290D60E08DE0DF91CF910C94290D80
:10352000CF93DF93EB0161E08DE00E94290D88814C
:1035300099810E94353761E0892B09F060E088E2CB
:103540000E94290D60E08DE0DF91CF910C94290D50
:10355000CF93DF93EB0161E08DE00E94290D88811C
:1035600099810E94353761E0892B09F060E086E29D
:103570000E94290D60E08DE0DF91CF910C94290D20
:10358000CF93DF93EB0161E08DE00E94290D8881EC
:1035900099810E94353761E0892B09F060E084E26F
:1035A0000E94290D60E08DE0DF91CF910C94290DF0
:1035B000CF93DF93EB0161E08DE00E94290D8881BC
:1035C00099810E94353761E0892B09F060E082E241
:1035D0000E94290D60E08DE0DF91CF910C94290DC0
:1035E000CF93DF93EB0161E08DE00E94290D88818C
:1035F00099810E94353761E0892B09F060E080E213
:103600000E94290D60E08DE0DF91CF910C94290D8F
:10361000CF93DF93EB0161E08DE00E94290D88815B
:1036200099810E94353761E0892B09F060E08EE1D5
:103630000E94290D60E08DE0DF91CF910C94290D5F
:10364000CF93DF93EB0161E08DE00E94290D88812B
:1036500099810E94353761E0892B09F060E08CE1A7
:103660000E94290D60E08DE0DF91CF910C94290D2F
:10367000CF93DF93EB0161E08DE00E94290D8881FB
:1036800099810E94353761E0892B09F060E085E47B
:103690000E94290D60E08DE0DF91CF910C94290DFF
:1036A000CF93DF93EB0161E08DE00E94290D8881CB
:1036B00099810E94353761E0892B09F060E084E44C
:1036C0000E94290D60E08DE0DF91CF910C94290DCF
:1036D000CF93DF93EB0161E08DE00E94290D88819B
:1036E00099810E94353761E0892B09F060E083E41D
:1036F0000E94290D60E08DE0DF91CF910C94290D9F
:10370000CF93DF93EB0161E08DE00E94290D88816A
:1037100099810E94353761E0892B09F060E082E4ED
:103720000E94290D60E08DE0DF91CF910C94290D6E
:10373000CF93DF93EB0161E08DE00E94290D88813A
:1037400099810E94353761E0892B09F060E081E4BE
:103750000E94290D60E08DE0DF91CF910C94290D3E
:10376000CF93DF93EB0161E08DE00E94290D88810A
:1037700099810E94353761E0892B09F060E080E48F
:103780000E94290D60E08DE0DF91CF910C94290D0E
:10379000CF93DF93EB0161E08DE00E94290D8881DA
:1037A00099810E94353761E0892B09F060E08FE351
:1037B0000E94290D60E08DE0DF91CF910C94290DDE
:1037C000CF93DF93EB0161E08DE00E94290D8881AA
:1037D00099810E94353761E0892B09F060E08EE322
:1037E0000E94290D60E08DE0DF91CF910C94290DAE
:1037F000AF92BF92CF92DF92EF92FF920F931F93FF
:10380000CF93DF9300D000D0CDB7DEB7FB0160814E
:103810007181CE0101960E94A628E980FA80E11408
:10382000F104E1F10D811E8101151105B9F1570176
:103830006501FFEFAF1ABF0AF6018081082E000C68
:10384000990B0E94C137892B99F7015011090E0D70
:103850001F1DF8018081082E000C990B0E94C137B2
:10386000892B79F4A8014F5F5F4F4C195D095E8386
:103870004D83EC14FD0458F4B601C7010E943E3B91
:1038800006C00C151D0570F301501109E2CFE98146
:10389000FA818D819E81E80FF91F1082CE01019679
:1038A0000E94312BFC018081082E000C990B0E9494
:1038B000203B892B41F4CE0101960E94312BFC0163
:1038C00080818F3251F464E678E082E295E00E94D4
:1038D0005C29CE0101960E941E2BCE0101960E940A
:1038E000A12826960FB6F894DEBF0FBECDBFDF919C
:1038F000CF911F910F91FF90EF90DF90CF90BF90ED
:10390000AF900895DC011C961C921C978D919C91A0
:10391000DC01ED91FC910488F589E02D19942F923A
:103920003F924F925F926F927F928F929F92AF924F
:10393000BF92CF92DF92EF92FF920F931F93CF939C
:10394000DF9300D000D0CDB7DEB75C016E834A01B3
:103950003901DC018D919C9186D9882309F4EEC050
:103960008E818D7F09F4E5C0BE81B63009F4E1C0D7
:10397000F5018789908D019709F0E0C081149104C9
:10398000E9F4D50154968D909C905597811491043B
:10399000A9F452968D919C915397019629F05396D4
:1039A0009C938E93529705C081E090E0F501938B34
:1039B000828BD50152968D909C9053978E818C501E
:1039C0008930B8F5F50186819781A085B18542855A
:1039D000538564857585481759076A077B0710F476
:1039E000AC01BD011A012B01F2E42F0E311C411C68
:1039F000511C0E94EB0DA2019101261B370B480BB5
:103A0000590B57FD0EC0C5010E9478040E94EB0DB2
:103A1000A2019101261B370B480B590B57FFF3CF1F
:103A200008C0D50156968C91811103C0C5010E9432
:103A300078046114710411F0280102C0412C512C4A
:103A4000B5E04B0E511CE114F10411F0C60102C0A7
:103A500080E090E0480E591EEE81E9839824892485
:103A600098249B828A82C8018C0D9D1D98278927E6
:103A700098279D838C83D501ED91FC918081918164
:103A8000DC01ED91FC910280F381E02D45E050E0F6
:103A9000BE016F5F7F4F19954C0160E070E0CB0174
:103AA0000E94B30DBE81BB2381F101151105A9F060
:103AB000D501ED91FC9180819181DC01ED91FC912A
:103AC0000280F381E02DA801B3011995880E991E9B
:103AD00060E070E0CB010E94B30DC114D104A9F0E5
:103AE000D501ED91FC9180819181DC01ED91FC91FA
:103AF0000280F381E02DA601B7011995880E991E69
:103B000060E070E0CB010E94B30D8414950439F09D
:103B1000F501108E178A80819181F4DE0FC00E941A
:103B2000EB0DD5011A966D937D938D939C931D9704
:103B300005C08114910409F07CCF23CF26960FB6DF
:103B4000F894DEBF0FBECDBFDF91CF911F910F91D3
:103B5000FF90EF90DF90CF90BF90AF909F908F90AD
:103B60007F906F905F904F903F902F900895CF93EC
:103B7000DF9300D000D0CDB7DEB782E295E00E949F
:103B8000080B181619062CF562E275E0CE010196B5
:103B90000E942E296AE578E082E295E00E945C2985
:103BA000CE0101960E941E2BCE0101960E94312B60
:103BB000FC018081082E000C990B0E94203B892B70
:103BC00021F4CE0101960E94312BCE0101960E9474
:103BD000A12826960FB6F894DEBF0FBECDBFDF91A9
:103BE000CF9108950F931F93CF93DF938C0182E3BE
:103BF00096E00E94780461E070E080E090E00E942E
:103C0000B30D023011055CF0C1E0D0E082E396E034
:103C10000E947804ACDF2196C017D107B9F7DF9175
:103C2000CF911F910F9108950F931F93CF93DF931F
:103C3000FC01228133816115710561F480819181DC
:103C4000A9014F5F5F4F53834283FC01E20FF31FD3
:103C500010821DC0DB010D900020E9F78D01061BCD
:103C6000170BA801420F531F848195818417950774
:103C700070F0EF0180819181A801820F931F0E9453
:103C80003E3B4A815B81400F511F5B834A83DF913A
:103C9000CF911F910F9108950F931F93CF93DF93AF
:103CA000CDB7DEB762970FB6F894DEBF0FBECDBFBB
:103CB0008C01CB014AE0BE016F5F7F4F0E948137CC
:103CC000BE016F5F7F4FC801AFDF62960FB6F894F9
:103CD000DEBF0FBECDBFDF91CF911F910F91089531
:103CE000AF92BF92CF92DF92EF92FF920F931F930A
:103CF000CF93DF93CDB7DEB72E970FB6F894DEBF24
:103D00000FBECDBF5C0125E4A20EB11CF501C08041
:103D1000CC2039F17C01FC01048110E0CE01019638
:103D20009A8789871C861B8688E090E09E878D870E
:103D300065E774E0CE01099677DFB801CE010996F8
:103D4000ABDFD12CF5E0EF0EF11C0B851C8529852E
:103D50003A8540E050E064E182E396E0E0DDF50181
:103D600010822E960FB6F894DEBF0FBECDBFDF9146
:103D7000CF911F910F91FF90EF90DF90CF90BF9068
:103D8000AF9008956BE582E295E00E9455290E946C
:103D9000EB0DAB01BC012AE082E295E00E9495297F
:103DA00067E578E082E295E00C945C29DB011097EE
:103DB00049F0ED91FC9111970190F081E02DBC014B
:103DC000CD01199480E090E008950895CF93DF939A
:103DD0001F92CDB7DEB76983DC01ED91FC910280C3
:103DE000F381E02D41E050E0BE016F5F7F4F1995F8
:103DF0000F90DF91CF910895DC01ED91FC91068C3D
:103E0000F78DE02D199591E089270895862F089563
:103E100081E0862708950F931F93CF93DF931F921E
:103E2000CDB7DEB78C01DC01ED91FC910084F1850A
:103E3000E02D1995892B51F0BE016F5F7F4FF8017E
:103E400084850E94D40E898190E002C08FEF9FEF9D
:103E50000F90DF91CF911F910F910895FC01848500
:103E60000C94140FCF93DF931F92CDB7DEB741E0D0
:103E700050E0BE016F5F7F4FFC0184850E94140FEC
:103E8000181619061CF4898190E002C08FEF9FEF8D
:103E90000F90DF91CF910895FC018485843011F05B
:103EA0000C94F40E80E090E00895CF92DF92EF92B0
:103EB000FF920F931F93CF93DF93CDB7DEB7AF97EA
:103EC0000FB6F894DEBF0FBECDBF7C016A0102E3DE
:103ED00013E01A8309831C861B8688EE93E0A0E01A
:103EE000B0E08D879E87AF87B88B8CE692E09A878B
:103EF0008987188F0F8B198E1A8E1B8E1C8E84E06B
:103F000089A31DA30CA31EA21FA218A619A6809107
:103F1000C1059091C205A091C305B091C4058CA7BD
:103F20009DA7AEA7BFA78B839C83AD83BE83188656
:103F30001F82AE014C5D5F4FCE01019683D181306F
:103F40009105B1F4D701ED91FC910684F785E02D40
:103F50001BA70AA78EA19FA1A8A5B9A58CA79DA75D
:103F6000AEA7BFA7A601BE01665D7F4FC701199529
:103F7000AF960FB6F894DEBF0FBECDBFDF91CF91E5
:103F80001F910F91FF90EF90DF90CF9008950895CB
:103F9000CF92DF92EF92FF921F93CF93DF93FC01BA
:103FA0001485143089F1EC0180E590E048D168E097
:103FB00070E0812F0E94252A0E94EB0D6B017C018D
:103FC000CE018AD98823B1F061E070E080E090E012
:103FD0000E94B30D0E94EB0DDC01CB018C199D09F1
:103FE000AE09BF09883E9340A105B10548F38C8511
:103FF0000E94650FEC85F0E0EE0FFF1FE250FB4FD3
:104000001182108284E08C87DF91CF911F91FF9005
:10401000EF90DF90CF9008958F929F92AF92BF92D2
:10402000CF92DF92EF92FF920F931F93CF936C0189
:104030005B017A01FC01C485C43041F481E090E069
:10404000F6019383828380E090E04BC08A01413087
:10405000584010F000E018E080E590E0F0D08C2FA0
:104060000E949A2A4C0163E070E08C2F0E94121883
:10407000873111F08C3121F48016910668F302C06B
:1040800000E010E080E590E0DAD09801A50160E062
:1040900070E08C2F0E94352A60E270E08C2F0E9425
:1040A000252A62E070E08C2F0E94121884FD0FC058
:1040B00063E070E08C2F0E941218811104C08C2FD5
:1040C0000E94650FBBCF80E590E0B9D0EACF40E118
:1040D00062E070E08C2F0E940818012B09F4AECF2B
:1040E000C701CF911F910F91FF90EF90DF90CF907C
:1040F000BF90AF909F908F900895CF92DF92FF92E4
:104100000F931F93CF93DF93FC012485243009F094
:1041100074C06A01EB018C01F12C8F2D0E943818BC
:10412000811103C0F801F48607C08B7F8831D1F379
:10413000F394F4E0FF12F1CFF8018485843009F4A0
:104140005CC020910202309103022F5F3F4F11F4B7
:1041500020E030EC309303022093020240910202EF
:104160005091030220E061E00E94790FF801F4848D
:104170008A818F3F51F48B818F3F91F48C818F3FE7
:1041800079F48D818F3F61F435C0811109C08B8135
:10419000811106C08C81811103C08D81882351F16A
:1041A000C114D10439F180E590E049D0BE016E5FC1
:1041B0007F4F8F2D90E0982F882744E050E0845F58
:1041C0009B4F0E948E0EB6018F2D0E94AC1864E0AA
:1041D00070E08F2D0E94252AC8017ED8873181F09A
:1041E00061E070E080E090E00E94B30DC80174D8F7
:1041F0008111F2CF84E0F801848780E090E002C072
:1042000081E090E0DF91CF911F910F91FF90DF90BF
:10421000CF90089580E3FB0180833296842F8295AE
:104220008F7090E1899F401911244A3014F4405D49
:1042300001C0495C4293482F8111F0CF08958CBD95
:104240009DBD08952F923F924F925F926F927F9201
:104250008F929F92AF92BF92CF92DF92EF92FF9296
:104260000F931F93CF93DF93CDB7DEB765970FB64C
:10427000F894DEBF0FBECDBF7C016B013A01FB019C
:1042800020E080E090E06AE03191332309F140EDD5
:10429000430F4A3080F4689FA001699F500D11249C
:1042A000CA01C097830F911D37FD9A958F3F9105E5
:1042B00059F350F313C03E3289F4233079F0D3011F
:1042C000A20FB11D12968C932F5F80E090E0DCCF9F
:1042D000233021F4F301858381E021C0F70142817D
:1042E0005381648175818091C9059091CA05A0911F
:1042F000CB05B091CC05481759076A077B0709F42D
:104300009EC10E94EB0D8701085F1F4F6F707727DA
:104310007C5FC8010E944F18813019F080E090E066
:10432000F3C182E393E09A838983F70182819381C9
:10433000A481B5818B839C83AD83BE8345E350E02C
:10434000BE016F5F7F4FC8010E942F19892B19F49E
:10435000C12CD12C6FC10E94EB0DF70177836683CE
:104360007627672776277A83698342E050E0BE018B
:104370006F5F7F4FC8010E94481781E090E09E87E1
:104380008D8742E050E0BE01635F7F4FC8010E940D
:10439000481780E091E09E878D8742E050E0BE01A3
:1043A000635F7F4FC8010E9448171E861D8642E04A
:1043B00050E0BE01635F7F4FC8010E94481742E092
:1043C00050E0BE01635F7F4FC8010E94481742E082
:1043D00050E0BE01635F7F4FC8010E94481756013D
:1043E000F5018081882311F1F6015F01819181112E
:1043F00015C045018C189D081814190494F48F8673
:1044000041E050E0BE01615F7F4FC8010E94481744
:10441000A401B601C8010E94481703C08E3229F7D3
:10442000E8CF6501FFEFCF1ADF0ADACF1F8641E040
:1044300050E0BE01615F7F4FC8010E944817C12C48
:10444000DD24D394DE86CD8642E050E0BE01635F7A
:104450007F4FC8010E944817DE86CD8642E050E0BB
:10446000BE01635F7F4FC8010E944817C8010E94C8
:104470007B18892B09F46CCF63E0A62EB12CF2E0F7
:104480006F0E711C0E94EB0D1B012C01C8010E94D4
:10449000EF1618161906A4F00E94EB0DDC01CB01F3
:1044A00082199309A409B50989389341A105B10579
:1044B000D0F462E370E080E090E00E94B30DE6CFBC
:1044C000F7014281538164817581808D918DA28D28
:1044D000B38D481759076A077B0741F4848D958D82
:1044E000C59721F406C02FEF3FEF9AC02EEF3FEFA4
:1044F00097C0F70181A192A10C970CF4A6C04CE0E3
:1045000050E0BE016F5F7F4FC8010E94A9168B81EA
:1045100090E0982F88272C81822B9A8B898B298178
:1045200030E0322F22274A81242BF7014681578120
:104530004217530709F086C097FF84C08F709270AE
:10454000892B09F0DEC0CF80D12CDC2CCC248885CF
:10455000C82AC114D10409F4D1C0812C912C8D81B9
:1045600090E0982F88272E81822B8816990608F4D0
:104570006FC0812C912C41E050E0BE016D5E7F4FF9
:10458000C8010E94A9168B89982F907C09F093C0CE
:10459000811186C08B898111EECF42E050E0BE01CF
:1045A000615F7F4FC8010E94A91642E050E0BE0142
:1045B000635F7F4FC8010E94A916C8010E94C716F9
:1045C000C8010E94C716C8010E94C716C8010E94F0
:1045D000C71642E050E0BE016F5E7F4FC8010E94E7
:1045E000A9168F8598898115914009F069C02D859C
:1045F0003E853227232732272130310509F060C05C
:1046000089899A898115944009F075C044E050E089
:10461000B301C8012C8B3D8B0E94A9162C893D89C2
:104620006901F1E0AF1AB10829F02FEFC216D206E6
:1046300009F428CFC8010E94F317C60165C08EEFA8
:104640009FEF62C02CEF3FEFEBCF2DEF3FEFE8CFB6
:1046500041E050E0BE01635F7F4FC8010E94A91690
:104660008D85811113C08D858111F2CFC8010E9403
:10467000C716C8010E94C716C8010E94C716C80104
:104680000E94C716FFEF8F1A9F0A69CF8D859FEF93
:10469000980F9D87882339F3C8010E94C716F6CF6B
:1046A0008B899FEF980F9B8B882309F473CFC801E8
:1046B0000E94C716F5CFC8010E94C7161B8A6ACF91
:1046C000412C512C89899A8998278927982748163F
:1046D000590638F4C8010E94C7168FEF481A580AC5
:1046E000F1CFEFEF8E1A9E0A8C149D0409F043CF90
:1046F00026EF3FEF95CF27EF3FEF92CF2AEF3FEF27
:104700008FCF2BEF3FEF8CCF65960FB6F894DEBFBF
:104710000FBECDBFDF91CF911F910F91FF90EF9012
:10472000DF90CF90BF90AF909F908F907F906F90D1
:104730005F904F903F902F9008952F923F924F920D
:104740005F926F927F928F929F92AF92BF92CF9221
:10475000DF92EF92FF920F931F93CF93DF93CDB72A
:10476000DEB7E3970FB6F894DEBF0FBECDBF7C0176
:104770001A012B0139010E94EB0D4B015C018701ED
:104780000D5B1F4FC8010E94EF1618161906A4F002
:104790000E94EB0DDC01CB0188199909AA09BB091C
:1047A000281639064A065B06D8F062E370E080E01E
:1047B00090E00E94B30DE6CF42E250E0BE016F5F91
:1047C0007F4FC8010E94A9168981823011F080E0D4
:1047D00061C1F8018489958983349105C1F702C0CC
:1047E0008FEF58C16D817E818F8198850E941D3A1F
:1047F0004B015C01F301608371838283938346E004
:1048000050E0B701685F7F4FCE014D960E94313B6B
:10481000892BE9F6F70180819181A281B381881605
:104820009906AA06BB0698F284819581A681B78174
:1048300088159905AA05BB0550F289899A89AB8923
:10484000BC8986879787A08BB18B8EECA82EB12C64
:10485000C8010E94C716F1E0AF1AB108C9F719A63E
:10486000670182E2C80ED11CF701B696FBA7EAA742
:10487000C7018A969DA78CA73C974F0189969FA751
:104880008EA73897F9ABE8AB1701F6E12F0E311C74
:10489000C5979BAB8AABF801818D928D18161906CE
:1048A0000CF0F7C0C8010E94C7168333910509F4C4
:1048B000CBC0FCF481309105C9F11CF4892B59F36C
:1048C000DCC083309105D1F1069709F0D6C0C8014C
:1048D0000E94C7165C0144E050E06AA97BA9C801A8
:1048E0000E94A916412C512CBB24F4E0AF1AB10848
:1048F00040C08A33910509F47BC03CF485339105AF
:1049000069F0C69709F440C0B8C08B33910509F42B
:1049100085C08F3F910509F4BECFAFC0C8010E948A
:10492000C716C8010E94C71689A7B5CFC8010E9443
:10493000C71644E050E068A979A93AC0C8010E94AE
:10494000C7165C0144E050E0B101C8010E94A916FD
:10495000412C512CBB2494E0A91AB1084A145B04E1
:104960000CF099CFC8010E94C716EFEF4E1A5E0AED
:10497000F5CF4A145B040CF08ECFC8010E94C71615
:104980008FEF481A580AF5CFC8010E94C716B82EF3
:10499000F701828D811110C0838D81110DC0848D2E
:1049A00081110AC0858D811107C044E050E0B40137
:1049B000C8010E94A9166FCFEEA5FFA540805180C7
:1049C00062807380B401CE0183960E94640C8DA135
:1049D0009EA1AFA1B8A584159505A605B70529F335
:1049E000BB2009F458CFC8010E94C716BA94F8CF6B
:1049F000C8010E94C71644E050E06AA57BA5C80123
:104A00000E94A916F70166A177A180A591A50E9431
:104A10001D3A66A377A380A791A73DCFC8010E9446
:104A2000C71644E050E06CA57DA5C8010E94A916F8
:104A3000F70162A573A584A595A50E941D3A62A7FA
:104A400073A784A795A727CFC8010E94C71644E083
:104A500050E0B601C8010E94A916F70162A173A136
:104A600084A195A10E941D3A62A373A384A395A378
:104A700066A777A780AB91AB0ECFC8010E94C7167F
:104A8000B82EBB2009F407CFC8010E94C716BA94FC
:104A9000F8CF89A5E3960FB6F894DEBF0FBECDBF61
:104AA000DF91CF911F910F91FF90EF90DF90CF900A
:104AB000BF90AF909F908F907F906F905F904F903E
:104AC0003F902F9008957F928F929F92AF92BF92C6
:104AD000CF92DF92EF92FF920F931F93CF93DF93CA
:104AE000CDB7DEB7A6970FB6F894DEBF0FBECDBF29
:104AF0008C01762E942E852E20E2B22ECE010196C8
:104B00007C01FC012B2D11922A95E9F782E393E0B9
:104B10009AA389A38FEF8BA38CA38DA38EA3680187
:104B200083E4C80ED11C43E450E0BE016F5D7F4FAB
:104B3000C6010E942F19019609F4BCC081E0898347
:104B40008A8386E0A82EAB821C82F801648175817D
:104B5000868197810E941D3A6D837E838F8398871B
:104B600089869A8680E890E09C878B874CE150E0AC
:104B7000B701C6010E944817F7012B2D11922A9503
:104B8000E9F7480188E0880E911CF401D7010190F3
:104B90000D92AA94E1F740E150E0B701C6010E94EE
:104BA0004817F7011192BA94E9F796E0A92EB12CB3
:104BB00040E250E0B701C6010E944817F1E0AF1A89
:104BC000B108B1F783E6898392E89A8393E59B83E2
:104BD0008C8385E38D8381E08E837F829DE398873C
:104BE00097E099878A8786E0F401DE011B960190A1
:104BF0000D928A95E1F78CE0898B8A8B68E774E0E7
:104C0000CE0143960E94503BF8014385BE01675E8A
:104C10007F4FC801FFDAF8014485BE01655E7F4F12
:104C2000C801F8DAF8014585BE01635E7F4FC8010F
:104C3000F1DA4EE150E0B701C6010E944817F3E0F7
:104C40007F121EC082E3898384E08A83F8019685FF
:104C50009B8397859C8390899D8391899E8396E30E
:104C60009F838887828D8987838D8A87848D8B87B0
:104C7000858D8C874CE050E0B701C6010E94481733
:104C800087E3898386E08A8391E09B8393E09C831A
:104C90008D838FE08E838AE38F838BE388878FEF0A
:104CA000898749E050E0B701C6010E944817C60154
:104CB0000E947B18A6960FB6F894DEBF0FBECDBF3C
:104CC000DF91CF911F910F91FF90EF90DF90CF90E8
:104CD000BF90AF909F908F907F9008950895CF924E
:104CE000DF92EF92FF920F931F93CF93DF936C01AC
:104CF0007A018B01C0E0D0E0CE15DF0589F0D80144
:104D00006D918D01D601ED91FC910190F081E02D26
:104D1000C6011995892B11F47E0102C02196ECCFB2
:104D2000C701DF91CF911F910F91FF90EF90DF901E
:104D3000CF9008950F931F93CF93DF93EC01888159
:104D40009981009729F02A813B812617370788F43B
:104D50008B016F5F7F4F0E94383A009761F0998313
:104D600088831B830A832C813D81232B11F4FC0152
:104D7000108281E001C080E0DF91CF911F910F91FF
:104D800008959F92AF92BF92CF92DF92EF92FF92DF
:104D90000F931F93CF93DF9300D000D0CDB7DEB732
:104DA0007C016B015C0182E0A80EB11CC5010E9470
:104DB000D013D7011296ED91FC91139780818B351A
:104DC00021F08B3709F4A7C0B1C0F70186818111AA
:104DD00012C080910A0581110BC010920705109234
:104DE0000605109209051092080581E080930A05D6
:104DF00006E015E07EC08150868300811181B801F4
:104E000084E090E00E94D61E009739F0FC011183E7
:104E10000083138212828C0111C080910A058111D6
:104E20000BC010920705109206051092090510920A
:104E3000080581E080930A0506E015E06BE5C501F1
:104E40000E941214882329F26DE5C5010E941214F4
:104E5000811148C086E0982E1A821982BE016F5FC8
:104E60007F4FC7018EDF882309F4B3CFD8016D913E
:104E70007C9188E090E00E94D61EDC01892B39F0FD
:104E800011961C921E9213961C921E921297F80174
:104E9000228133812115310551F0F9018081918101
:104EA000009711F09C01F9CFB183A08303C0F801F2
:104EB000B383A283109709F48CCFFE01319612962A
:104EC000892D01900D928A95E1F76DE5C5010E944B
:104ED0001214811107C06CE2C5010E9412148111E5
:104EE000BBCF77CFD70116968C9116978F5F16960A
:104EF0008C93F80180819181892B11F410E036C0E8
:104F000086E090E0D60111969C938E9313961C93A5
:104F10000E9312972AC0C7010E946715FC012081D9
:104F20003181232B59F327E030E017C011E087329D
:104F300019F0823209F010E0C7010E94DE140097D8
:104F4000E9F2112341F022E030E0F60131832083C1
:104F5000938382830BC021E030E0D60111963C930D
:104F60002E9313969C938E93129711E0812F269681
:104F70000FB6F894DEBF0FBECDBFDF91CF911F916A
:104F80000F91FF90EF90DF90CF90BF90AF909F90E8
:104F90000895EF92FF920F931F93CF93DF93FC013D
:104FA000248135816115710511F480E018C0411527
:104FB0005105A1F07B01EC018A01020F131FB8011A
:104FC000B9DE882391F3288139818C819D81B701D5
:104FD000820F931F0E94503B1D830C8381E0DF9161
:104FE000CF911F910F91FF90EF9008950F931F9312
:104FF000CF93DF938C01EB01FC01808191810097BD
:10500000B1F0688179816115710579F04281538130
:105010002C813D814217530740F00E94503B8C8108
:105020009D81F8019583848313C00E94483688814E
:105030009981F801918380838A819B819383828304
:105040008C819D8195838483198218821B821A82A8
:105050001D821C82DF91CF911F910F910895CF93F4
:10506000DF93EC0188819981009711F00E94483606
:10507000198218821D821C821B821A82DF91CF91B5
:105080000895CF93DF93EC016115710559F0FB0191
:1050900001900020E9F73197AF01461B570B79DFEC
:1050A000811102C0CE01DBDFCE01DF91CF910895E7
:1050B000EF92FF920F931F93CF93DF93EC017B014D
:1050C0008A01BA0137DE811103C0CE01C8DF07C0F3
:1050D0001D830C83B701888199810E94503BCE01CA
:1050E000DF91CF911F910F91FF90EF900895CF9393
:1050F000DF93EC016115710551F0FB010190002077
:10510000E9F73197AF01461B570BD2DF01C0A7DF8C
:10511000CE01DF91CF910895CF93DF93EC01FB0196
:105120008617970751F0608171816115710521F033
:1051300044815581BDDF01C092DFCE01DF91CF9167
:105140000895FC01808191810C944836FC01118204
:10515000108213821282158214826115710549F042
:10516000FB0101900020E9F73197AF01461B570B77
:105170009FCF0895BF92CF92DF92EF92FF920F934D
:105180001F93CF93DF937C016B018A01E901241700
:10519000350720F4812F8901C42FD82F69E574E0E9
:1051A000C701D4DFD60114968D919C9115970817ED
:1051B0001907C8F48C179D0708F4EC01D601ED918E
:1051C000FC911197EC0FFD1FB08010824D915C9106
:1051D000BA01600F711FC7018ADFD601ED91FC9102
:1051E000EC0FFD1FB082C701DF91CF911F910F918E
:1051F000FF90EF90DF90CF90BF9008950F931F9393
:10520000CF93DF93EC010E94EB0D688779878A8743
:105210009B87E881F9810284F385E02DCE01199501
:1052200097FF17C00E94EB0D088519852A853B85DD
:10523000DC01CB01801B910BA20BB30B0C811D81F8
:105240002E813F8180179107A207B30710F38FEFDC
:105250009FEFDF91CF911F910F910895EF92FF92F1
:105260000F931F93CF93DF931F921F92CDB7DEB79B
:105270008C017B0169E574E069DFC701BFDF97FD41
:105280000AC089831A8241E050E0BE016F5F7F4F00
:10529000C8017FDEF2CFC8010F900F90DF91CF9150
:1052A0001F910F91FF90EF900895DC01ED91FC911B
:1052B0000190F081E02D1994EF92FF920F931F93CC
:1052C000CF93DF938C017B01C0E0D0E0F701EC0FBE
:1052D000FD1F6491662361F0D801ED91FC9101906E
:1052E000F081E02DC8011995892B11F02196EECFA0
:1052F000CE01DF91CF911F910F91FF90EF90089514
:105300006115710579F0FB0101900020E9F73197F3
:10531000AF01461B570BDC01ED91FC910280F3813C
:10532000E02D199480E090E008954F925F926F9283
:105330007F92EF92FF920F931F93CF93DF93CDB79E
:10534000DEB7A1970FB6F894DEBF0FBECDBF7C01CC
:10535000FA01CB0119A2223008F42AE08E010F5D78
:105360001F4F422E512C612C712CBF01A3019201C1
:105370000E943739F901CA01015011096A3014F449
:10538000605D01C0695CD8016C93232B242B252B15
:1053900061F7B801C701B4DFA1960FB6F894DEBF7C
:1053A0000FBECDBFDF91CF911F910F91FF90EF9076
:1053B0007F906F905F904F90089564E374E0A0CF6A
:1053C0000F931F93CF93DF93EC01CB01BE010E949B
:1053D000040C8C01CE01F1DF800F911FDF91CF9182
:1053E0001F910F9108950F931F93CF93DF93EC01BB
:1053F00087DF8C01CE01E1DF800F911FDF91CF911C
:105400001F910F9108950F931F93CF93DF93EC019A
:1054100053DF8C01CE01D1DF800F911FDF91CF913F
:105420001F910F910895CF93DF93AC0160E070E07E
:105430002AE082E295E079DFEC0182E295E0BDDFCF
:105440008C0F9D1FDF91CF910895CF93C82F462FCA
:1054500061E070E00E94081861E070E08C2F0E940B
:1054600012188111F9CFCF9108959F92AF92BF92F8
:10547000CF92DF92EF92FF920F931F93CF93DF9320
:10548000982E8B015A01690164E270E00E941218A3
:10549000E82EF12C65E270E0892D0E941218FE2C96
:1054A000EE24E82AE701C00FD11F9E013770E92CD6
:1054B000F12CC701880F991FAC014E5E5A4F7A013B
:1054C000FA0180819181820F931FA9014C0D5D1D0E
:1054D0004130584090F000E018E0021B130BA80187
:1054E000B5010E948E0EA601401B510BB501600F45
:1054F000711FF7018081918102C0A601B5010E9450
:105500008E0ECC0DDD1D4D2F64E270E0892D0E94C2
:1055100008184C2F65E270E0892DDF91CF911F9123
:105520000F91FF90EF90DF90CF90BF90AF909F9042
:105530000C940818FF920F931F93CF93DF93F82ECC
:10554000C0E0D0E08F2D0E94450E8C01892B21F008
:105550008F2D0E94450EEC01C017D10799F7CE019F
:10556000DF91CF911F910F91FF9008958F929F929D
:10557000AF92BF92CF92DF92EF92FF920F931F9361
:10558000CF93DF93B82E4B018A01A22E68E270E020
:105590000E941218C82FD0E069E270E08B2D0E94A3
:1055A0001218DC2FCC27C82B9E013770CB2CD12CA6
:1055B000C601880F991FAC01465E5A4F6A01FA0175
:1055C00080819181820F931FA801420F531F4130A8
:1055D000584098F060E078E07B01E21AF30AA701F6
:1055E000B4010E94640EA8014E195F09B4016E0D4A
:1055F0007F1DF6018081918102C0A801B4010E9443
:10560000640EA1100EC0C00FD11F4D2F68E270E0D4
:105610008B2D0E9408184C2F69E270E08B2D0E94A0
:105620000818DF91CF911F910F91FF90EF90DF90BD
:10563000CF90BF90AF909F908F900895CF93DF93BE
:10564000FC01448155816081718182E295E047DBF4
:10565000EC0182E295E0B1DE8C0F9D1FDF91CF91CE
:105660000895FC0124813581232B21F080819181D3
:10567000009721F41092710681E796E00895E2E226
:10568000F5E0A089B18982E08C93A485B5851C9250
:10569000A685B78580E18C93108EA489B58986E0B4
:1056A0008C93A289B3898C9180618C93A289B389F0
:1056B0008C9188608C93A289B3898C9180688C933B
:1056C0000288F389E02D80818F7D80830895CF92B9
:1056D000DF92EF92FF920F931F93CF93DF93CDB79B
:1056E000DEB765970FB6F894DEBF0FBECDBF8C0155
:1056F00086E090E00E94F5388F3439F487E090E03E
:105700000E94F5388B3609F483C061E778E082E2C5
:1057100095E0D2DD86E30E94940DBC01990F880BC1
:10572000990B611571058105910511F00E942C37C7
:1057300060E080E090E00E94A9136AE070E080E001
:1057400090E00E94B30D66E181E090E00E94A91311
:105750006AE070E080E090E00E94B30D6EE382E0CA
:1057600090E00E94A9136AE070E080E090E00E945F
:10577000B30D0E9429372FE730E040E050E00E944F
:105780000B3983E090E00E94A9136AE070E080E0AA
:1057900090E00E94B30D0E942937C12CD12C7601D4
:1057A000CA94A70196010E940B3984E090E00E9400
:1057B000A9136AE070E080E090E00E94B30D0E94BF
:1057C0002937A70196010E940B3985E090E00E94DD
:1057D000A9136AE070E080E090E00E94B30D6FE4EE
:1057E00086E090E00E94A9136AE070E080E090E01B
:1057F0000E94B30D6BE687E090E00E94A9136AE077
:1058000070E080E090E00E94B30DC80160DF62C0EC
:1058100069E574E0CE01409699DC86E9C82E86E001
:10582000D82EE12CF12CC7010E94F538F6018193A6
:105830006F011B861A861D861C861F861E8640E108
:10584000BE016F5F7F4F90E00E94A837BE016F5F7F
:105850007F4FCE010A964BDC4E855F856A857B853E
:10586000CE01409696DBCE010A966BDCFFEFEF1A75
:10587000FF0A86E0E816F104B1F62C893D89A901FA
:1058800046505109BE01605F7F4FCE01019672DC28
:1058900061E878E082E295E00FDDCE014096CEDE51
:1058A0006BE778E082E295E007DDCE010196C6DE87
:1058B000F801118210821382128215821482BE01B5
:1058C0006F5F7F4FC80192DBCE0101963ADCCE01BB
:1058D000409637DCC80165960FB6F894DEBF0FBE60
:1058E000CDBFDF91CF911F910F91FF90EF90DF908F
:1058F000CF900895CF93DF93EC0182E393E09983F7
:1059000088831A821B821C821D8280E590E00E949F
:105910001F21BE016E5F7F4F44E050E08FE090E0BA
:105920000E94640E0E94C71FCE01DF91CF9108959F
:10593000CF93DF93CDB7DEB7A9970FB6F894DEBF4C
:105940000FBECDBF789484B5826084BD84B581607C
:1059500084BD85B5826085BD85B5816085BD80913A
:105960006E00816080936E001092810080918100B2
:1059700082608093810080918100816080938100AA
:10598000809180008160809380008091B10084606C
:105990008093B1008091B00081608093B0008091CD
:1059A000910082608093910080919100816080934A
:1059B0009100809190008160809390008091A1007F
:1059C00082608093A1008091A10081608093A100FA
:1059D0008091A00081608093A0008091210182606D
:1059E0008093210180912101816080932101809128
:1059F000200181608093200180917A0084608093EF
:105A00007A0080917A00826080937A0080917A0097
:105A1000816080937A0080917A00806880937A0018
:105A20001092C1002CDE64E670E080E090E00E94FD
:105A3000B30D25DE8AE090E0A0E0B0E0809326057B
:105A400090932705A0932805B09329056CE371E096
:105A500082E295E031DC64E573E082E295E0C3DC4C
:105A600069E573E082E295E0BEDC6EE673E082E217
:105A700095E0B9DC0EE012E0D801FC900E5F1F4FFC
:105A800061E08F2D0E94580D61E08F2D0E94290D3D
:105A90006BE773E082E295E033DCB2E000341B0791
:105AA00059F782E295E089DC61E08DE00E94290DE2
:105AB000FE0131961F01CF010ADEB1018CE296E0B2
:105AC00095DAC1013EDB64ED71E082E295E0F4DB42
:105AD0000E94EB0DAB01BC012AE082E295E025DCDF
