:100000009CC30000CBC30000C9C30000C7C30000ED
:10001000C5C30000C3C30000C1C30000BFC30000CC
:10002000BDC30000BBC30000B9C30000B7C30000DC
:10003000B5C30000B3C30000B1C30000AFC30000EC
:10004000ADC30000ABC30000A9C30000A7C30000FC
:10005000A5C30000A3C30000A1C300000C94C329E2
:100060009DC300000C9469280C94402897C300009D
:1000700095C3000093C3000091C300008FC300002C
:100080008DC300008BC3000089C3000087C300003C
:1000900085C3000083C3000081C300007FC300004C
:1000A0007DC300007BC3000079C3000077C300005C
:1000B00075C3000073C3000071C300006FC300006C
:1000C0006DC300006BC3000069C3000067C300007C
:1000D00065C3000063C3000061C300005FC300008C
:1000E0005DC30000661D6B1D701D7A1D841DFD1D06
:1000F0008E1D961D9E1DA81DB21DBC1DCB1DD51DA0
:10010000FD1DDF1DE91DF31DF821F1210A22012249
:10011000FD21A521C4216B21BA28BD28AC28B02817
:10012000B628F428C128C528CB28CF28D328D92819
:10013000DD28E128F428E728EB28EF2856657273BC
:10014000696F6E3A200000002100240027002A0079
:100150002D003000330001010000040107010A01F5
:10016000646E7353657276657249503A2000676118
:10017000746577617949503A20006C6F63616C490E
:10018000503A20004661696C656420746F20636F8B
:100190006E6669677572652045746865726E657410
:1001A0000D0A54727920616761696E004574686553
:1001B000726E657420696E697469616C697A696EC2
:1001C000672E20506C6561736520776169742E2EEF
:1001D0002E005D005B00436F6E6E656374656400A6
:1001E000436F6E6E656374696F6E204661696C65FE
:1001F0006421005D0D0A436F6E6E65637420746F39
:1002000020736572766572005B000D0A230D0A2368
:100210000D0A230D0A002020203E203E203E203ED5
:10022000203E203E20202066616365626F6F6B2E4A
:10023000636F6D2F7461636B656C75612020203C6A
:10024000203C203C203C203C203C2020005468697D
:100250006574206269206E6179206368756120642D
:10026000756F632064616E67206B692C206861790B
:10027000206C69656E20686520766F692074616303
:100280002067696121200A303338373834353039F6
:10029000370A66616365626F6F6B2E636F6D2F74D3
:1002A00061636B656C7561004465766963652049BF
:1002B000443A20005D005B005472792061676169F7
:1002C0006E0054727920616761696E00506F7274BC
:1002D0003A2000446F6D61696E3A20004175746880
:1002E0003A20004661696C65642E20547279206161
:1002F0006761696E00476574204163636F756E7452
:1003000020426C796E6B0066616365626F6F6B2E65
:10031000636F6D2F7461636B656C756100746163ED
:100320006B656C756140676D61696C2E636F6D0004
:100330002D2D004465766963652049503A200056AA
:10034000657273696F6E3A2000476974682053794B
:100350007374656D0D0A4175746F6D617469632006
:100360004D696E657273204D616E61676572000D37
:100370000A0D0A0D0A0D0A0D0A0D0A0D0A0D0A0DC5
:100380000A0D0A0053797374656D2072756E6E697B
:100390006E67003E53657269616C3A20003E2054DE
:1003A00065726D696E616C3A200047656E657261B9
:1003B000746520004849443A20004D41433A2000EA
:1003C000000020002300260029002C002F0032000E
:1003D00000010000030106010901050505050705E7
:1003E00008080808020202020A0A080804040404B1
:1003F00001010101010101010303030303030303DD
:10040000040707070C0C0C0C0C0C0C0C020202026B
:1004100006060606060606060B0B0B0B0B0B0B0B54
:100420000102102020080810204010204080020106
:1004300002010804020101020408102040808040EB
:1004400020100804020180040201804020100804EA
:100450000201080402010102040810204080010288
:1004600004081020408000000A0B02090C0D0E0841
:10047000070304010000000000000000000000006D
:10048000000000000000000000000000000000006C
:100490000000121110000000000000000000000029
:1004A0000000000000000000000000005812581278
:1004B00058125812581258125812581258125812EC
:1004C00058125812581258125812581258125812DC
:1004D00058125812581258125812581258125812CC
:1004E00058125812581258125812581258125812BC
:1004F00058125812581258125812581258125812AC
:10050000581258125812581258125812581258129B
:10051000581258125812581258125812581258128B
:10052000581258125812581258125812581258127B
:10053000581258125812581258125812581258126B
:10054000581258125812581258125812581258125B
:10055000581258125812581258125812581258124B
:10056000581258125812581258125812581258123B
:10057000581258125812581258125812581258122B
:10058000581258125812581258125812581258121B
:10059000581258125812581258125812581258120B
:1005A000581258125812581258125812F1035F0B71
:1005B0000A0BB50A600A0B0AB60961090C09B708EB
:1005C00062080D08B80763070D071E2EC92D742D8C
:1005D0001F2DC92C722C1B2CC42B6D2B162B5712C4
:1005E00057125712571257125712571257125712C3
:1005F00057125712571257125712571257125712B3
:1006000057125712571257125712571257125712A2
:100610005712571257125712571257125712571292
:100620005712571257125712571257125712571282
:100630005712571257125712571257125712571272
:100640005712571257125712571257125712571262
:100650005712571257125712571257125712571252
:100660005712571257125712571257125712571242
:100670005712571257125712571257125712571232
:100680005712571257125712571257125712571222
:100690005712571257125712571257125712571212
:1006A000571257125712571257125712626C6E6B2D
:1006B000696E660076657200302E352E3400682D26
:1006C0006265617400313000627566662D696E0086
:1006D00031303234006465760041726475696E6F42
:1006E000204D656761006370750041546D656761F9
:1006F0003235363000636F6E00573531303000626E
:1007000075696C64004465632031392032303138BA
:100710002031363A30313A303300000000002200F8
:10072000250028002B002E003100340002010000BB
:10073000050108010B01333D273D11241FBECFEFFA
:10074000D1E2DEBFCDBF00E00CBF14E0A0E0B2E01C
:10075000E8EFF7E800E00BBF02C007900D92AA3A5D
:10076000B107D9F726E0AAEAB4E001C01D92A73E7E
:10077000B207E1F713E0CCE9D3E000E006C021972F
:100780000109802FFE010E949A42CB39D10780E0F7
:100790000807A9F70E9432350C94EB4331CCDC01F9
:1007A000ED91FC910280F381E02D1994FC01EB5B4B
:1007B000FF4F308121E0230F2083FC01E30FF11D67
:1007C0006583203438F0DC01ED91FC910680F781DF
:1007D000E02D199581E090E00895089580E090E083
:1007E0000895AF92BF92CF92DF92EF92FF920F9354
:1007F0001F93CF93DF9300D000D0CDB7DEB7FB01BE
:1008000060817181CE0101960E94820FE980FA8099
:10081000E114F104E1F10D811E8101151105B9F119
:1008200057016501FFEFAF1ABF0AF6018081082E5C
:10083000000C990B0E944640892B99F70150110931
:100840000E0D1F1DF8018081082E000C990B0E94CF
:100850004640892B79F4A8014F5F5F4F4C195D0921
:100860005E834D83EC14FD0458F4B601C7010E9469
:10087000C34306C00C151D0570F301501109E2CFEA
:10088000E981FA818D819E81E80FF91F1082CE01E6
:1008900001960E94F60CFC018081082E000C990B39
:1008A0000E94A543892B41F4CE0101960E94F60CCB
:1008B000FC0180818F3269F46DE973E08EE695E08A
:1008C0000E945F34BE016F5F7F4F8EE695E00E940D
:1008D0000635CE0101960E944A0F26960FB6F8946F
:1008E000DEBF0FBECDBFDF91CF911F910F91FF9063
:1008F000EF90DF90CF90BF90AF90089543E454E025
:1009000068E474E080E896E00E94B52F60E070E053
:10091000CB0108958EE794E09093250580932405FC
:1009200080912A0590912B05A0912C05B0912D0561
:100930008093260590932705A0932805B093290559
:100940000E94E617E6E2F6E01182608170E040E086
:1009500080E896E00C94143060912606882331F0EC
:100960008FEF8093270670E04FEF04C010922706A8
:1009700070E040E080E896E00C941430EF92FF9233
:100980000F931F93CF93DF93CDB7DEB7EC970FB6DE
:10099000F894DEBF0FBECDBF8C017B01411103C0B7
:1009A0006FE474E002C06CE474E0CE018B960E94A8
:1009B000820F4AE0B701CE01C7960E944F0F6AE747
:1009C00074E0CE01C1960E94820F0E947B180A97A4
:1009D000ECF40E947B187C016CEE73E0CE010D9666
:1009E0000E94820FBE01635F7F4FCE0107960E9477
:1009F0007A0FB701CE0107960E947D0EBC01CE0191
:100A000001960E947A0FFF24F39409C00E947B187C
:100A10004AE0BC01CE0101960E944F0FF12CBE01AD
:100A20006F5F7F4FCE01C1960E94110FCE010196DC
:100A30000E944A0FFF2041F0CE0107960E944A0F04
:100A4000CE010D960E944A0F65E574E0CE01C19675
:100A50000E94D90E0E9475180A97ECF40E9475182E
:100A60007C016CEE73E0CE0149960E94820FBE01BC
:100A7000675E7F4FCE0143960E947A0FB701CE0189
:100A800043960E947D0EBC01CE0101960E947A0F12
:100A9000FF24F39409C00E9475184AE0BC01CE01FE
:100AA00001960E944F0FF12C4D815E8169817A8100
:100AB000CE01C1960E94500ECE0101960E944A0FAF
:100AC000FF2041F0CE0143960E944A0FCE01499685
:100AD0000E944A0F65E574E0CE01C1960E94D90ECE
:100AE0000E946F180A97ECF40E946F187C016CEE5C
:100AF00073E0CE0185960E94820FBE016B5D7F4F31
:100B0000CE014F960E947A0FB701CE014F960E94F8
:100B10007D0EBC01CE0101960E947A0FFF24F39452
:100B200009C00E946F184AE0BC01CE0101960E94E4
:100B30004F0FF12C4D815E8169817A81CE01C19682
:100B40000E94500ECE0101960E944A0FFF2041F0F4
:100B5000CE014F960E944A0FCE0185960E944A0F01
:100B600067E574E0CE0101960E94820FBE016F5CC2
:100B70007F4FCE0101960E94C80E69E574E00E9485
:100B8000B10EBE01695C7F4F0E94C80E69E774E038
:100B90000E94B10EBE01655D7F4F0E94C80EBC0170
:100BA000C8010E947A0FCE0101960E944A0FCE0121
:100BB000C1960E944A0FCE01C7960E944A0FCE01ED
:100BC0008B960E944A0FC801EC960FB6F894DEBFD0
:100BD0000FBECDBFDF91CF911F910F91FF90EF908E
:100BE0000895CF93DF9300D000D0CDB7DEB78EE667
:100BF00095E00E94EA261816190634F56EE675E0AF
:100C0000CE0101960E94281163E973E08EE695E01B
:100C10000E945F34BE016F5F7F4F8EE695E00E94B9
:100C20000635CE010196E2D6FC018081082E000C2B
:100C3000990B0E94A543892B19F4CE010196D6D6B3
:100C4000CE0101960E944A0F26960FB6F894DEBF99
:100C50000FBECDBFDF91CF9108950F931F93CF9318
:100C6000DF938C0180E896E00E946B1961E070E0F0
:100C700080E090E00E947F29023011055CF0C1E025
:100C8000D0E080E896E00E946B19ABDF2196C01798
:100C9000D107B9F7DF91CF911F910F910895DB0133
:100CA000109749F0ED91FC9111970190F081E02DA2
:100CB000BC01CD01199480E090E008950F931F933B
:100CC000CF93DF93FC01228133816115710561F4BB
:100CD00080819181A9014F5F5F4F53834283FC0163
:100CE000E20FF31F10821DC0DB010D900020E9F719
:100CF0008D01061B170BA801420F531F848195819C
:100D00008417950770F0EF0180819181A801820F0F
:100D1000931F0E94C3434A815B81400F511F5B8335
:100D20004A83DF91CF911F910F9108950F931F93E5
:100D3000CF93DF93CDB7DEB762970FB6F894DEBFDF
:100D40000FBECDBF8C01CB014AE0BE016F5F7F4F6C
:100D50000E940640BE016F5F7F4FC801AFDF629601
:100D60000FB6F894DEBF0FBECDBFDF91CF911F91BC
:100D70000F910895AF92BF92CF92DF92EF92FF92C0
:100D80000F931F93CF93DF93CDB7DEB72E970FB698
:100D9000F894DEBF0FBECDBF5C0125E4A20EB11CEE
:100DA000F501C080CC2041F17C01FC01048110E000
:100DB000CE0101969A8789871C861B8688E090E081
:100DC0009E878D8762E674E0CE01099677DFB801D1
:100DD000CE010996ABDFD12CF5E0EF0EF11C0B85AF
:100DE0001C8529853A8540E050E064E180E896E082
:100DF0000E94932EF50110822E960FB6F894DEBF56
:100E00000FBECDBFDF91CF911F910F91FF90EF905B
:100E1000DF90CF90BF90AF9008950F931F93CF9323
:100E2000DF9300D000D0CDB7DEB78B0161E08DE05D
:100E30000E94F528F801808191810E94B03F11E065
:100E4000892B09F410E061E0612788E20E94F5280F
:100E5000812F82DD412F6EE070E0CE0101968EDDA4
:100E6000BE016F5F7F4F88E296E00E940635CE019B
:100E700001960E944A0F88E296E07CDF412F6EE0E7
:100E800070E0CE0101967ADDBE016F5F7F4F8EE686
:100E900095E00E940635CE010196FCD765E070E032
:100EA00080E090E00E947F2960E08DE00E94F528BC
:100EB00026960FB6F894DEBF0FBECDBFDF91CF915F
:100EC0001F910F9108950F931F93CF93DF9300D03D
:100ED00000D0CDB7DEB78B0161E08DE00E94F52830
:100EE000F801808191810E94B03F11E0892B09F4C3
:100EF00010E061E0612786E20E94F528812F2CDD59
:100F0000412F6DE070E0CE01019638DDBE016F5FCC
:100F10007F4F88E296E00E940635CE010196BAD74F
:100F200088E296E027DF412F6DE070E0CE01019668
:100F300025DDBE016F5F7F4F8EE695E00E9406358E
:100F4000CE010196A7D765E070E080E090E00E94B6
:100F50007F2960E08DE00E94F52826960FB6F89470
:100F6000DEBF0FBECDBFDF91CF911F910F910895CE
:100F70000F931F93CF93DF9300D000D0CDB7DEB790
:100F80008B0161E08DE00E94F528F801808191815C
:100F90000E94B03F11E0892B09F410E061E0612765
:100FA00084E20E94F528812FD7DC412F6CE070E0AD
:100FB000CE010196E3DCBE016F5F7F4F88E296E0D1
:100FC0000E940635CE01019665D788E296E0D2DE12
:100FD000412F6CE070E0CE010196D0DCBE016F5F66
:100FE0007F4F8EE695E00E940635CE01019652D7DE
:100FF00065E070E080E090E00E947F2960E08DE095
:101000000E94F52826960FB6F894DEBF0FBECDBF1E
:10101000DF91CF911F910F9108950F931F93CF935D
:10102000DF9300D000D0CDB7DEB78B0161E08DE05B
:101030000E94F528F801808191810E94B03F11E063
:10104000892B09F410E061E0612782E20E94F52813
:10105000812F82DC412F6BE070E0CE0101968EDCA7
:10106000BE016F5F7F4F88E296E00E940635CE0199
:10107000019610D788E296E07DDE412F6BE070E0AC
:10108000CE0101967BDCBE016F5F7F4F8EE695E05F
:101090000E940635CE010196FDD665E070E080E045
:1010A00090E00E947F2960E08DE00E94F52826965E
:1010B0000FB6F894DEBF0FBECDBFDF91CF911F9169
:1010C0000F9108950F931F93CF93DF9300D000D01B
:1010D000CDB7DEB78B0161E08DE00E94F528F80105
:1010E000808191810E94B03F11E0892B09F410E0CA
:1010F00061E0612780E20E94F528812F2DDC412FDD
:101100006AE070E0CE01019639DCBE016F5F7F4F6F
:1011100088E296E00E940635CE010196BBD688E2B1
:1011200096E028DE412F6AE070E0CE01019626DCD1
:10113000BE016F5F7F4F8EE695E00E940635CE01BF
:101140000196A8D665E070E080E090E00E947F29DB
:1011500060E08DE00E94F52826960FB6F894DEBF79
:101160000FBECDBFDF91CF911F910F9108950F93C7
:101170001F93CF93DF9300D000D0CDB7DEB78B01A4
:1011800061E08DE00E94F528F801808191810E9444
:10119000B03F11E0892B09F410E061E061278EE196
:1011A0000E94F528812FD8DB412F69E070E0CE0145
:1011B0000196E4DBBE016F5F7F4F88E296E00E94FC
:1011C0000635CE01019666D688E296E0D3DD412F42
:1011D00069E070E0CE010196D1DBBE016F5F7F4F09
:1011E0008EE695E00E940635CE01019653D665E065
:1011F00070E080E090E00E947F2960E08DE00E9436
:10120000F52826960FB6F894DEBF0FBECDBFDF914E
:10121000CF911F910F9108950F931F93CF93DF9359
:1012200000D000D0CDB7DEB78B0161E08DE00E9429
:10123000F528F801808191810E94B03F11E0892B4F
:1012400009F410E061E0612785E40E94F528812F10
:1012500083DB412F68E070E0CE0101968FDBBE0199
:101260006F5F7F4F88E296E00E940635CE010196BF
:1012700011D688E296E07EDD412F68E070E0CE0175
:1012800001967CDBBE016F5F7F4F8EE695E00E948A
:101290000635CE010196FED565E070E080E090E075
:1012A0000E947F2960E08DE00E94F52826960FB607
:1012B000F894DEBF0FBECDBFDF91CF911F910F918C
:1012C00008950F931F93CF93DF9300D000D0CDB735
:1012D000DEB78B0161E08DE00E94F528F801808186
:1012E00091810E94B03F11E0892B09F410E061E088
:1012F000612784E40E94F528812F2EDB412F67E0CF
:1013000070E0CE0101963ADBBE016F5F7F4F88E24D
:1013100096E00E940635CE010196BCD588E296E0A3
:1013200029DD412F67E070E0CE01019627DBBE0189
:101330006F5F7F4F8EE695E00E940635CE010196E5
:10134000A9D565E070E080E090E00E947F2960E030
:101350008DE00E94F52826960FB6F894DEBF0FBEEA
:10136000CDBFDF91CF911F910F9108950F931F93E0
:10137000CF93DF9300D000D0CDB7DEB78B0161E013
:101380008DE00E94F528F801808191810E94B03F94
:1013900011E0892B09F410E061E0612783E40E94E9
:1013A000F528812FD9DA412F66E070E0CE01019651
:1013B000E5DABE016F5F7F4F88E296E00E94063556
:1013C000CE01019667D588E296E0D4DC412F66E035
:1013D00070E0CE010196D2DABE016F5F7F4F8EE6DC
:1013E00095E00E940635CE01019654D565E070E087
:1013F00080E090E00E947F2960E08DE00E94F52867
:1014000026960FB6F894DEBF0FBECDBFDF91CF9109
:101410001F910F9108950F931F93CF93DF9300D0E7
:1014200000D0CDB7DEB78B0161E08DE00E94F528DA
:10143000F801808191810E94B03F11E0892B09F46D
:1014400010E061E0612782E40E94F528812F84DAB0
:10145000412F65E070E0CE01019690DABE016F5F2A
:101460007F4F88E296E00E940635CE01019612D5A4
:1014700088E296E07FDC412F65E070E0CE010196C6
:101480007DDABE016F5F7F4F8EE695E00E940635E4
:10149000CE010196FFD465E070E080E090E00E940C
:1014A0007F2960E08DE00E94F52826960FB6F8941B
:1014B000DEBF0FBECDBFDF91CF911F910F91089579
:1014C0000F931F93CF93DF9300D000D0CDB7DEB73B
:1014D0008B0161E08DE00E94F528F8018081918107
:1014E0000E94B03F11E0892B09F410E061E0612710
:1014F00081E40E94F528812F2FDA412F64E070E00B
:10150000CE0101963BDABE016F5F7F4F88E296E025
:101510000E940635CE010196BDD488E296E02ADC11
:10152000412F64E070E0CE01019628DABE016F5FC2
:101530007F4F8EE695E00E940635CE010196AAD433
:1015400065E070E080E090E00E947F2960E08DE03F
:101550000E94F52826960FB6F894DEBF0FBECDBFC9
:10156000DF91CF911F910F9108950F931F93CF9308
:10157000DF9300D000D0CDB7DEB78B0161E08DE006
:101580000E94F528F801808191810E94B03F11E00E
:10159000892B09F410E061E0612780E40E94F528BE
:1015A000812FDAD9412F63E070E0CE010196E6D9B0
:1015B000BE016F5F7F4F88E296E00E940635CE0144
:1015C000019668D488E296E0D5DB412F63E070E0B5
:1015D000CE010196D3D9BE016F5F7F4F8EE695E0B5
:1015E0000E940635CE01019655D465E070E080E09A
:1015F00090E00E947F2960E08DE00E94F528269609
:101600000FB6F894DEBF0FBECDBFDF91CF911F9113
:101610000F9108950F931F93CF93DF9300D000D0C5
:10162000CDB7DEB78B0161E08DE00E94F528F801AF
:10163000808191810E94B03F11E0892B09F410E074
:1016400061E061278FE30E94F528812F85D9412F22
:1016500062E070E0CE01019691D9BE016F5F7F4FCD
:1016600088E296E00E940635CE01019613D488E206
:1016700096E080DB412F62E070E0CE0101967ED9DA
:10168000BE016F5F7F4F8EE695E00E940635CE016A
:10169000019600D465E070E080E090E00E947F2930
:1016A00060E08DE00E94F52826960FB6F894DEBF24
:1016B0000FBECDBFDF91CF911F910F9108950F9372
:1016C0001F93CF93DF9300D000D0CDB7DEB78B014F
:1016D00061E08DE00E94F528F801808191810E94EF
:1016E000B03F11E0892B09F410E061E061278EE33F
:1016F0000E94F528812F30D9412F61E070E0CE01A2
:1017000001963CD9BE016F5F7F4F88E296E00E9450
:101710000635CE010196BED388E296E02BDB412F41
:1017200061E070E0CE01019629D9BE016F5F7F4F65
:101730008EE695E00E940635CE010196ABD365E0BA
:1017400070E080E090E00E947F2960E08DE00E94E0
:10175000F52826960FB6F894DEBF0FBECDBFDF91F9
:10176000CF911F910F9108950895CF93DF93EC01CE
:1017700088819981009711F00E94C33E19821882D6
:101780001D821C821B821A82DF91CF9108950F93D4
:101790001F93CF93DF93EC0188819981009729F003
:1017A0002A813B812617370788F48B016F5F7F4FB3
:1017B0000E94BD42009761F0998388831B830A834E
:1017C0002C813D81232B11F4FC01108281E001C0AA
:1017D00080E0DF91CF911F910F910895EF92FF92DA
:1017E0000F931F93CF93DF93EC017B018A01BA0122
:1017F000CEDF811103C0CE01B8DF07C01D830C838B
:10180000B701888199810E94D543CE01DF91CF91A4
:101810001F910F91FF90EF9008959F92AF92BF920A
:10182000CF92DF92EF92FF920F931F93CF93DF93AC
:10183000982E8B015A01690164E270E00E94C33165
:10184000E82EF12C65E270E0892D0E94C331FE2C58
:10185000EE24E82AE701C00FD11F9E013770E92C62
:10186000F12CC701880F991FAC01415C5A4F7A01D6
:10187000FA0180819181820F931FA9014C0D5D1D9A
:101880004130584090F000E018E0021B130BA80113
:10189000B5010E946E2AA601401B510BB501600FD5
:1018A000711FF7018081918102C0A601B5010E94DC
:1018B0006E2ACC0DDD1D4D2F64E270E0892D0E9453
:1018C000BA314C2F65E270E0892DDF91CF911F91E5
:1018D0000F91FF90EF90DF90CF90BF90AF909F90CF
:1018E0000C94BA31FF920F931F93CF93DF93F82E8E
:1018F000C0E0D0E08F2D0E94272A8C01892B21F097
:101900008F2D0E94272AEC01C017D10799F7CE012D
:10191000DF91CF911F910F91FF9008958F929F9229
:10192000AF92BF92CF92DF92EF92FF920F931F93ED
:10193000CF93DF93B82E4B018A01A22E68E270E0AC
:101940000E94C331C82FD0E069E270E08B2D0E9465
:10195000C331DC2FCC27C82B9E013770CB2CD12C68
:10196000C601880F991FAC01495B5A4F6A01FA0101
:1019700080819181820F931FA801420F531F413034
:10198000584098F060E078E07B01E21AF30AA70182
:10199000B4010E94442AA8014E195F09B4016E0DDA
:1019A0007F1DF6018081918102C0A801B4010E94CF
:1019B000442AA1100EC0C00FD11F4D2F68E270E065
:1019C0008B2D0E94BA314C2F69E270E08B2D0E9462
:1019D000BA31DF91CF911F910F91FF90EF90DF907F
:1019E000CF90BF90AF909F908F900895FC0124817D
:1019F0003581232B21F080819181009721F4109271
:101A0000230583E295E00895EEE6F5E0A089B1892B
:101A100082E08C93A485B5851C92A685B78580E16C
:101A20008C93108EA489B58986E08C93A289B389A2
:101A30008C9180618C93A289B3898C9188608C93FE
:101A4000A289B3898C9180688C930288F389E02DF8
:101A500080818F7D80830895CF93DF93EC018EE3A7
:101A600093E0998388831A821B821C821D8280E501
:101A700090E00E94FB1FBE016E5F7F4F44E050E08C
:101A80008FE090E00E94442A0E94FA1FCE01DF916D
:101A9000CF9108959F92AF92BF92CF92DF92EF9233
:101AA000FF920F931F93CF93DF9300D000D0CDB759
:101AB000DEB77C016B015C0182E0A80EB11CC501A0
:101AC0000E945624D7011296ED91FC9113978081C4
:101AD0008B3521F08B3709F4A5C0AFC0F7018681A3
:101AE000811112C080911B0581110BC01092180545
:101AF0001092170510921A051092190581E0809333
:101B00001B0507E115E07CC08150868300811181AF
:101B1000B80184E090E0C3D8009739F0FC0111834C
:101B20000083138212828C0111C080911B058111E8
:101B30000BC0109218051092170510921A051092FA
:101B4000190581E080931B0507E115E06BE5C501F0
:101B50000E949824882331F26DE5C5010E949824E3
:101B6000811147C086E0982E1A821982BE016F5FEC
:101B70007F4FC7018FDF882309F4B4CFD8016D915F
:101B80007C9188E090E08BD8DC01892B39F01196AC
:101B90001C921E9213961C921E921297F80122819B
:101BA00033812115310551F0F90180819181009730
:101BB00011F09C01F9CFB183A08303C0F801B38376
:101BC000A283109709F48ECFFE0131961296892DCB
:101BD00001900D928A95E1F76DE5C5010E94982468
:101BE000811107C06CE2C5010E9498248111BCCF0D
:101BF00079CFD70116968C9116978F5F16968C9396
:101C0000F80180819181892B11F410E036C086E0C3
:101C100090E0D60111969C938E9313961C930E938D
:101C200012972AC0C7010E94ED25FC012081318155
:101C3000232B59F327E030E017C011E0873219F069
:101C4000823209F010E0C7010E9464250097E9F292
:101C5000112341F022E030E0F601318320839383A9
:101C600082830BC021E030E0D60111963C932E9385
:101C700013969C938E93129711E0812F26960FB6A0
:101C8000F894DEBF0FBECDBFDF91CF911F910F91B2
:101C9000FF90EF90DF90CF90BF90AF909F9008950E
:101CA000EF92FF920F931F93CF93DF93FC01248158
:101CB00035816115710511F480E018C04115510599
:101CC000A1F07B01EC018A01020F131FB8015FDD57
:101CD000882391F3288139818C819D81B701820FFE
:101CE000931F0E94D5431D830C8381E0DF91CF9128
:101CF0001F910F91FF90EF900895EF92FF920F9335
:101D00001F93CF93DF93CDB7DEB728970FB6F89424
:101D1000DEBF0FBECDBF7C01CB014AE08E010F5F5D
:101D20001F4FB8010E940640F80101900020E9F71A
:101D30003197AF01401B510BB801C701B1DF8111D1
:101D400002C0C70112DDC70128960FB6F894DEBFA6
:101D50000FBECDBFDF91CF911F910F91FF90EF90FC
:101D60000895CF93DF93EC016115710559F0FB01E4
:101D700001900020E9F73197AF01461B570B90DF28
:101D8000811102C0CE01F1DCCE01DF91CF91089527
:101D9000CF93DF93EC01FB01448155816081718118
:101DA0007FDF811102C0CE01E0DCCE01DF91CF9157
:101DB00008956115710549F0FB0101900020E9F7D4
:101DC0003197AF01461B570B6BCF80E00895CF933F
:101DD000DF93EC016115710551F0FB0101900020CA
:101DE000E9F73197AF01461B570BF8DC01C0BDDCAA
:101DF000CE01DF91CF910895CF93DF93EC01FB01EA
:101E00008617970751F0608171816115710521F086
:101E100044815581E3DC01C0A8DCCE01DF91CF9184
:101E200008950F931F93CF93DF938C01EB01FC0177
:101E3000808191810097B1F0688179816115710588
:101E400079F0428153812C813D814217530740F044
:101E50000E94D5438C819D81F8019583848313C0B2
:101E60000E94C33E88819981F801918380838A8191
:101E70009B81938382838C819D8195838483198246
:101E800018821B821A821D821C82DF91CF911F91C2
:101E90000F910895FC01808191810C94C33E0F93B2
:101EA0001F93CF93DF93CDB7DEB762970FB6F89449
:101EB000DEBF0FBECDBF8C01CB01F80111821082B5
:101EC000138212821582148250E0BE016F5F7F4F31
:101ED0000E94FC3FBE016F5F7F4FC80178DF6296B2
:101EE0000FB6F894DEBF0FBECDBFDF91CF911F912B
:101EF0000F910895FC0111821082138212821582C3
:101F000014827ACFFC011182108213821282158210
:101F100014826115710549F0FB0101900020E9F779
:101F20003197AF01461B570B59CC0895BF92CF9202
:101F3000DF92EF92FF920F931F93CF93DF937C0179
:101F40006B018A01E9012417350720F4812F8901EB
:101F5000C42FD82F6AE774E0C701D4DFD6011496E6
:101F60008D919C91159708171907C8F48C179D0738
:101F700008F4EC01D601ED91FC911197EC0FFD1FD7
:101F8000B08010824D915C91BA01600F711FC70142
:101F90001EDFD601ED91FC91EC0FFD1FB082C70151
:101FA000DF91CF911F910F91FF90EF90DF90CF9035
:101FB000BF900895CF92DF92EF92FF920F931F93FD
:101FC000CF93DF93CDB7DEB765970FB6F894DEBF3A
:101FD0000FBECDBF8C0186E090E00E947A418F3425
:101FE00039F487E090E00E947A418B3609F484C08E
:101FF0006AEA73E08EE695E00E945F3486E30E9411
:102000006029BC01990F880B990B61157105810539
:10201000910511F00E94A73F60E080E090E00E94EF
:1020200081186AE070E080E090E00E947F2966E11C
:1020300081E090E00E9481186AE070E080E090E02A
:102040000E947F296EE382E090E00E9481186AE09E
:1020500070E080E090E00E947F290E94A43F2FE77B
:1020600030E040E050E00E94904183E090E00E9428
:1020700081186AE070E080E090E00E947F290E9471
:10208000A43FC12CD12C7601CA94A70196010E94CD
:10209000904184E090E00E9481186AE070E080E066
:1020A00090E00E947F290E94A43FA70196010E9410
:1020B000904185E090E00E9481186AE070E080E045
:1020C00090E00E947F296FE486E090E00E948118F2
:1020D0006AE070E080E090E00E947F296BE687E094
:1020E00090E00E9481186AE070E080E090E00E9439
:1020F0007F29C8015FDF6CC06AE774E0CE014096BB
:1021000001DF81E1C82E85E0D82EE12CF12CC7013A
:102110000E947A41F60181936F011B861A861D8603
:102120001C861F861E8640E1BE016F5F7F4F90E0D8
:102130000E942D40BE016F5F7F4FCE010A9647DEA1
:102140004E855F856A857B85CE014096A9DDCE01EF
:102150000A96A0DEFFEFEF1AFF0A86E0E816F10408
:10216000B1F62C893D89A90146505109BE01605F35
:102170007F4FCE010196DADE6AEB73E08EE695E0E2
:102180000E945F34BE01605F7F4F8EE695E00E9443
:10219000063564EB73E08EE695E00E945F34BE0185
:1021A0006F5F7F4F8EE695E00E940635F801118241
:1021B00010821382128215821482BE016F5F7F4FDC
:1021C000C8012FDECE01019665DECE01409662DEAB
:1021D000C80165960FB6F894DEBF0FBECDBFDF9184
:1021E000CF911F910F91FF90EF90DF90CF900895C6
:1021F0000F931F93CF93DF93EC010E94B729688759
:1022000079878A879B87E881F9810284F385E02DAD
:10221000CE01199597FF17C00E94B7290885198527
:102220002A853B85DC01CB01801B910BA20BB30BF4
:102230000C811D812E813F8180179107A207B30772
:1022400010F38FEF9FEFDF91CF911F910F910895C2
:10225000EF92FF920F931F93CF93DF931F921F92E2
:10226000CDB7DEB78C017B016AE774E04BDEC701B6
:10227000BFDF97FD0AC089831A8241E050E0BE01AA
:102280006F5F7F4FC8010CDDF2CFC8010F900F9038
:10229000DF91CF911F910F91FF90EF90089580E310
:1022A000FB0180833296842F82958F7090E1899F05
:1022B000401911244A3014F4405D01C0495C429336
:1022C000482F8111F0CF08954F925F926F927F92C5
:1022D0008F929F92AF92BF92CF92DF92EF92FF9236
:1022E0000F931F93CF93DF934B015C0180912E05D9
:1022F00090912F05A0913005B0913105881699066F
:10230000AA06BB0609F4C2C08CE3C82ED12CE12C6E
:10231000F12CC501B401A70196010E94BC41609354
:102320003205CA01B901A70196010E94BC41609320
:102330003305CA01B90128E130E040E050E00E94D5
:10234000BC4169017A0160933405CA01B9016C5F2F
:102350007F4F8F4F9F4F27E030E040E050E00E94DA
:10236000BC416F5F60933505412C512C320140E038
:1023700004E610E0C0E9D1E0242F30E02E54384FBD
:10238000F901E370FF27309789F4C901B8010E9471
:102390008742892B31F4C901BE010E948742892BF3
:1023A00029F48EE691E0A0E0B0E004C08DE691E073
:1023B000A0E0B0E0480E591E6A1E7B1ED301C20188
:1023C000AA27BB27C816D906EA06FB0610F04F5FFE
:1023D000D3CF40933805309799F4C90164E670E093
:1023E0000E948742892B39F4C90160E971E00E949B
:1023F0008742892B29F48EE691E0A0E0B0E004C08A
:102400008DE691E0A0E0B0E0481A590A6A0A7B0A1A
:10241000C418D508E608F708C90164E670E00E9410
:102420008742EC01C90160E971E00E948742A6E998
:10243000B2E020E0213039F4309749F4209729F4B4
:10244000009729F402C04C9103C04DE101C04CE15A
:1024500050E060E070E0C416D506E606F70640F0EE
:10246000C41AD50AE60AF70A2F5F11962C3011F725
:102470002F5F20933705C394C092360580922E05B6
:1024800090922F05A0923005B0923105DF91CF9147
:102490001F910F91FF90EF90DF90CF90BF90AF9082
:1024A0009F908F907F906F905F904F9008950895C8
:1024B0000895DC011396ED91FC911497309751F03B
:1024C00024813581AB01420F531FA281B381A41730
:1024D000B50710F40C94C623C901069655834483AE
:1024E0008E0F9F1F08952F923F924F925F926F928F
:1024F0007F928F929F92AF92BF92CF92DF92EF9294
:10250000FF920F931F93CF93DF93CDB7DEB76597FD
:102510000FB6F894DEBF0FBECDBF7C016B013A0150
:10252000FB0120E080E090E06AE03191332309F183
:1025300040ED430F4A3080F4689FA001699F500D21
:102540001124CA01C097830F911D37FD9A958F3FC3
:10255000910559F350F313C03E3289F4233079F0DA
:10256000D301A20FB11D12968C932F5F80E090E0F3
:10257000DCCF233021F4F301858381E021C0F70112
:102580004281538164817581809115069091160670
:10259000A0911706B0911806481759076A077B07DC
:1025A00009F49EC10E94B7298701085F1F4F6F7011
:1025B00077277C5FC8010E948F31813019F080E05D
:1025C00090E0F3C18EE393E09A838983F7018281DF
:1025D0009381A481B5818B839C83AD83BE8345E3C6
:1025E00050E0BE016F5F7F4FC8010E942632892BE9
:1025F00019F4C12CD12C6FC10E94B729F701778340
:1026000066837627672776277A83698342E050E0DE
:10261000BE016F5F7F4FC8010E94D03081E090E023
:102620009E878D8742E050E0BE01635F7F4FC80107
:102630000E94D03080E091E09E878D8742E050E09C
:10264000BE01635F7F4FC8010E94D0301E861D8689
:1026500042E050E0BE01635F7F4FC8010E94D0306E
:1026600042E050E0BE01635F7F4FC8010E94D0305E
:1026700042E050E0BE01635F7F4FC8010E94D0304E
:102680005601F5018081882311F1F6015F018191E6
:10269000811115C045018C189D081814190494F473
:1026A0008F8641E050E0BE01615F7F4FC8010E940C
:1026B000D030A401B601C8010E94D03003C08E32D0
:1026C00029F7E8CF6501FFEFCF1ADF0ADACF1F86BF
:1026D00041E050E0BE01615F7F4FC8010E94D030F1
:1026E000C12CDD24D394DE86CD8642E050E0BE01CD
:1026F000635F7F4FC8010E94D030DE86CD8642E006
:1027000050E0BE01635F7F4FC8010E94D030C80116
:102710000E94E331892B09F46CCF63E0A62EB12C23
:10272000F2E06F0E711C0E94B7291B012C01C80139
:102730000E94B23318161906A4F00E94B729DC01D2
:10274000CB0182199309A409B50989389341A105E0
:10275000B105D0F462E370E080E090E00E947F2950
:10276000E6CFF7014281538164817581808D918D1F
:10277000A28DB38D481759076A077B0741F4848DF2
:10278000958DC59721F406C02FEF3FEF9AC02EEF2D
:102790003FEF97C0F70181A192A10C970CF4A6C05E
:1027A0004CE050E0BE016F5F7F4FC8010E946C3368
:1027B0008B8190E0982F88272C81822B9A8B898B94
:1027C000298130E0322F22274A81242BF7014681CC
:1027D00057814217530709F086C097FF84C08F7056
:1027E0009270892B09F0DEC0CF80D12CDC2CCC2458
:1027F0008885C82AC114D10409F4D1C0812C912C38
:102800008D8190E0982F88272E81822B881699063B
:1028100008F46FC0812C912C41E050E0BE016D5E48
:102820007F4FC8010E946C338B89982F907C09F0F0
:1028300093C0811186C08B898111EECF42E050E0B8
:10284000BE01615F7F4FC8010E946C3342E050E0DF
:10285000BE01635F7F4FC8010E946C33C8010E94B4
:102860008A33C8010E948A33C8010E948A33C80192
:102870000E948A3342E050E0BE016F5E7F4FC80184
:102880000E946C338F8598898115914009F069C049
:102890002D853E853227232732272130310509F047
:1028A00060C089899A898115944009F075C044E017
:1028B00050E0B301C8012C8B3D8B0E946C332C89F6
:1028C0003D896901F1E0AF1AB10829F02FEFC21676
:1028D000D20609F428CFC8010E947B31C60165C029
:1028E0008EEF9FEF62C02CEF3FEFEBCF2DEF3FEF6E
:1028F000E8CF41E050E0BE01635F7F4FC8010E9416
:102900006C338D85811113C08D858111F2CFC80183
:102910000E948A33C8010E948A33C8010E948A3308
:10292000C8010E948A33FFEF8F1A9F0A69CF8D85F5
:102930009FEF980F9D87882339F3C8010E948A333F
:10294000F6CF8B899FEF980F9B8B882309F473CF69
:10295000C8010E948A33F5CFC8010E948A331B8ABE
:102960006ACF412C512C89899A89982789279827E1
:102970004816590638F4C8010E948A338FEF481A66
:10298000580AF1CFEFEF8E1A9E0A8C149D0409F0BD
:1029900043CF26EF3FEF95CF27EF3FEF92CF2AEFC0
:1029A0003FEF8FCF2BEF3FEF8CCF65960FB6F894AC
:1029B000DEBF0FBECDBFDF91CF911F910F91FF9072
:1029C000EF90DF90CF90BF90AF909F908F907F90CF
:1029D0006F905F904F903F902F9008952F923F926D
:1029E0004F925F926F927F928F929F92AF92BF921F
:1029F000CF92DF92EF92FF920F931F93CF93DF93CB
:102A0000CDB7DEB7E3970FB6F894DEBF0FBECDBFEC
:102A10007C011A012B0139010E94B7294B015C018D
:102A200087010D5B1F4FC8010E94B23318161906AB
:102A3000A4F00E94B729DC01CB0188199909AA09E1
:102A4000BB09281639064A065B06D8F062E370E037
:102A500080E090E00E947F29E6CF42E250E0BE0194
:102A60006F5F7F4FC8010E946C338981823011F003
:102A700080E061C1F8018489958983349105C1F7AB
:102A800002C08FEF58C16D817E818F8198850E9431
:102A9000A2424B015C01F3016083718382839383C3
:102AA00046E050E0B701685F7F4FCE014D960E942F
:102AB000B643892BE9F6F70180819181A281B38128
:102AC00088169906AA06BB0698F284819581A6818C
:102AD000B78188159905AA05BB0550F289899A899D
:102AE000AB89BC8986879787A08BB18B8EECA82E8B
:102AF000B12CC8010E948A33F1E0AF1AB108C9F7BE
:102B000019A6670182E2C80ED11CF701B696FBA791
:102B1000EAA7C7018A969DA78CA73C974F01899683
:102B20009FA78EA73897F9ABE8AB1701F6E12F0EF8
:102B3000311CC5979BAB8AABF801818D928D18161D
:102B400019060CF0F7C0C8010E948A33833391053F
:102B500009F4CBC0FCF481309105C9F11CF4892B38
:102B600059F3DCC083309105D1F1069709F0D6C046
:102B7000C8010E948A335C0144E050E06AA97BA945
:102B8000C8010E946C33412C512CBB24F4E0AF1AD5
:102B9000B10840C08A33910509F47BC03CF4853309
:102BA000910569F0C69709F440C0B8C08B33910510
:102BB00009F485C08F3F910509F4BECFAFC0C801AD
:102BC0000E948A33C8010E948A3389A7B5CFC80101
:102BD0000E948A3344E050E068A979A93AC0C8014C
:102BE0000E948A335C0144E050E0B101C8010E94B8
:102BF0006C33412C512CBB2494E0A91AB1084A141F
:102C00005B040CF099CFC8010E948A33EFEF4E1A93
:102C10005E0AF5CF4A145B040CF08ECFC8010E9407
:102C20008A338FEF481A580AF5CFC8010E948A33B9
:102C3000B82EF701828D811110C0838D81110DC0D6
:102C4000848D81110AC0858D811107C044E050E058
:102C5000B401C8010E946C336FCFEEA5FFA5408080
:102C6000518062807380B401CE0183960E94302827
:102C70008DA19EA1AFA1B8A584159505A605B705A0
:102C800029F3BB2009F458CFC8010E948A33BA94B3
:102C9000F8CFC8010E948A3344E050E06AA57BA5C2
:102CA000C8010E946C33F70166A177A180A591A5A8
:102CB0000E94A24266A377A380A791A73DCFC80137
:102CC0000E948A3344E050E06CA57DA5C8010E94B3
:102CD0006C33F70162A573A584A595A50E94A24255
:102CE00062A773A784A795A727CFC8010E948A333C
:102CF00044E050E0B601C8010E946C33F70162A1C4
:102D000073A184A195A10E94A24262A373A384A38C
:102D100095A366A777A780AB91AB0ECFC8010E94A1
:102D20008A33B82EBB2009F407CFC8010E948A332A
:102D3000BA94F8CF89A5E3960FB6F894DEBF0FBE1C
:102D4000CDBFDF91CF911F910F91FF90EF90DF905A
:102D5000CF90BF90AF909F908F907F906F905F903B
:102D60004F903F902F9008957F928F929F92AF92B5
:102D7000BF92CF92DF92EF92FF920F931F93CF9368
:102D8000DF93CDB7DEB7A6970FB6F894DEBF0FBEC0
:102D9000CDBF8C01762E942E852E20E2B22ECE0150
:102DA00001967C01FC012B2D11922A95E9F78EE307
:102DB00093E09AA389A38FEF8BA38CA38DA38EA3FB
:102DC000680183E4C80ED11C43E450E0BE016F5D8E
:102DD0007F4FC6010E942632019609F4BCC081E0F3
:102DE00089838A8386E0A82EAB821C82F8016481E5
:102DF0007581868197810E94A2426D837E838F8335
:102E0000988789869A8680E890E09C878B874CE13A
:102E100050E0B701C6010E94D030F7012B2D11926E
:102E20002A95E9F7480188E0880E911CF401D70142
:102E300001900D92AA94E1F740E150E0B701C6017C
:102E40000E94D030F7011192BA94E9F796E0A92ECA
:102E5000B12C40E250E0B701C6010E94D030F1E051
:102E6000AF1AB108B1F783E6898392E89A8393E5B4
:102E70009B838C8385E38D8381E08E837F829DE3BA
:102E8000988797E099878A8786E0F401DE011B9690
:102E900001900D928A95E1F78CE0898B8A8B65E62B
:102EA00074E0CE0143960E94D543F8014385BE01EC
:102EB000675E7F4FC801F3D9F8014485BE01655EA6
:102EC0007F4FC801ECD9F8014585BE01635E7F4F95
:102ED000C801E5D94EE150E0B701C6010E94D030EB
:102EE000F3E07F121EC082E3898384E08A83F801C5
:102EF00096859B8397859C8390899D8391899E83EA
:102F000096E39F838887828D8987838D8A87848DC6
:102F10008B87858D8C874CE050E0B701C6010E94FD
:102F2000D03087E3898386E08A8391E09B8393E0B6
:102F30009C838D838FE08E838AE38F838BE38887E6
:102F40008FEF898749E050E0B701C6010E94D03079
:102F5000C6010E94E331A6960FB6F894DEBF0FBEFD
:102F6000CDBFDF91CF911F910F91FF90EF90DF9038
:102F7000CF90BF90AF909F908F907F900895609377
:102F80002A0570932B0580932C0590932D05DC0169
:102F9000CB01845D9E4FAF4FBF4F8093260590932A
:102FA0002705A0932805B093290582E090E090932F
:102FB0003E0580933D050E94B729609339057093C3
:102FC0003A0580933B0590933C050895CF92DF929C
:102FD000EF92FF920F931F930E94B729C09039057B
:102FE000D0903A05E0903B05F0903C058B019C01A8
:102FF0000C191D092E093F0980912A0590912B0576
:10300000A0912C05B0912D05083E134021053105F6
:10301000D0F00196A11DB11D80932A0590932B0538
:10302000A0932C05B0932D05B701A60148515C4F24
:103030006F4F7F4F4093390550933A0560933B059E
:1030400070933C05C9CF40912605509127056091AA
:1030500028057091290584179507A607B70780F101
:10306000E0912405F0912505309751F119956115EE
:1030700071058105910511F082DF22C080912A053A
:1030800090912B05A0912C05B0912D05845D9E4F4C
:10309000AF4FBF4F8093260590932705A093280537
:1030A000B093290581E090E020913D0530913E05E7
:1030B000232B11F480E090E090933E0580933D0532
:1030C00060912A0570912B0580912C0590912D051A
:1030D0001F910F91FF90EF90DF90CF90089576DFD2
:1030E000F3D88091320590E0089570DFEDD880919B
:1030F000330590E008956ADFE7D88091340590E0C9
:1031000008950C9482410F931F93CF93DF931F92E6
:103110001F92CDB7DEB78C01DC01ED91FC9180816F
:10312000918169831A8241E050E0BE016F5F7F4F59
:103130000E94500EF80182819381019693838283CD
:103140000F900F90DF91CF911F910F910895EF9203
:10315000FF920F931F93CF93DF93EC0108811981A6
:10316000D8018D919C91FC01E480F5800E94D90EDC
:10317000D801ED91FC91848195812A813B81280FB2
:10318000391F2E193F093B832A83DF91CF911F916D
:103190000F91FF90EF9008950F931F93CF93DF93BC
:1031A000CDB7DEB766970FB6F894DEBF0FBECDBFC2
:1031B0008C01CB011E8AFE0176962AE030E0B9012F
:1031C0000E94874290E3980F9293CB010097B9F742
:1031D000BF01C801BCDF66960FB6F894DEBF0FBE14
:1031E000CDBFDF91CF911F910F9108958F929F9244
:1031F000AF92BF92EF92FF920F931F93CF93DF9303
:10320000CDB7DEB766970FB6F894DEBF0FBECDBF61
:103210007C011E8A8E010A5E1F4F8AE0882E912C47
:10322000A12CB12CCB01BA01A50194010E94BC4193
:10323000942F852F605DF80162938F01A901692F9A
:10324000782F411551056105710561F7BF01C7016F
:103250007EDF66960FB6F894DEBF0FBECDBFDF915E
:10326000CF911F910F91FF90EF90BF90AF909F90E3
:103270008F900895FF920F931F93CF93DF93611563
:10328000710541F469E374E0DF91CF911F910F91D3
:10329000FF905DCF8B01EC0162E2CE0134DFF801DB
:1032A00061918F01662351F0ECE6F4E0F080FF209D
:1032B000A1F39181961751F03296F8CF62E2CE01D8
:1032C000DF91CF911F910F91FF901DCF6CE5CE0143
:1032D0001ADF6F2DE2CF2F923F924F925F926F9243
:1032E0007F928F929F92AF92BF92CF92DF92EF9296
:1032F000FF920F931F93CF93DF93CDB7DEB7A697BF
:103300000FB6F894DEBF0FBECDBF5C012DB73EB740
:103310003BA32AA360E070E0CB010E947F29D50186
:1033200057968D919C915897029709F449C25696E9
:103330008C9156978F5F56968C93569754962D91F5
:103340003C915597232B09F0A0C1833008F09DC113
:10335000F501808191810E94732E582E811111C038
:103360000E94B7292B013C01D5018D919C910E94AF
:10337000732EF5012789308D2130310509F087C181
:1033800025C1FE0131964F01D501ED91FC9180815F
:103390009181DC01ED91FC910084F185E02D19957E
:1033A00018161906ECF6D501ED91FC91C080D1807C
:1033B000FE0177967F0100E010E0C6010E94F81040
:1033C00097FD09C0D7018D937D010F5F1F4F053019
:1033D000110599F704C0012B09F0EDC0EAC0688C13
:1033E000798C762467247624798E688EEA8CFB8C1F
:1033F000FE24EF24FE24FB8EEA8E6114710409F48E
:10340000DAC02F89211135C00E94B729F5016683E2
:103410007783808791872789308D232B21F56A94C4
:10342000672809F524E0E216F10429F038ECE316E8
:10343000F10409F0C0C0D5011E966D937D938D9364
:103440009C935197E1E0F0E05896FC93EE935797E8
:10345000C5010E94B62460E070E0CB010E947F2984
:103460000E948A04A6C0F5E0EF16F10409F08CCFA3
:10347000A2C0D5018D919C91B1E0EB16B4E0FB06A2
:1034800030F0F501108E178A0E94862E92C04DB73B
:103490005EB759A348A3A7014F5F5F4F6DB77EB7D3
:1034A000641B750B0FB6F8947EBF0FBE6DBF0DB7D2
:1034B0001EB70F5F1F4FDC014D915C911801C12CAD
:1034C000D12CCE14DF0491F0CA012EA34CA35DA32E
:1034D0000E94F8102EA14CA15DA197FD33C0F1010F
:1034E00081931F01FFEFCF1ADF0AEBCFC00ED11E71
:1034F000D6011C922EA30E94B729F501668377831B
:10350000808791872EA1213109F45CC1E8F029322E
:1035100009F080C1D50114968D919C911597892B46
:1035200039F480E290E00E942E3EF5019583848379
:10353000E00EF11E1A830983FC82EB820E151F0533
:1035400008F4CFC370E02DC02630E9F02F3009F425
:1035500067C1223009F0BBC3D50157968D919C916C
:103560005897892B81F4E1E0F0E05896FC93EE93B4
:103570005797C5010E94B62460E070E0CB010E941D
:103580007F290E948A04C12CD12CE12CF12C08EC5B
:1035900010E020E030E0A30160E0C5010E94932E1E
:1035A000752DE8A1F9A10FB6F894FEBF0FBEEDBFCF
:1035B00004C0752D02C070E002C07111E5CED501C6
:1035C0008D919C917CA30E94862EF1C0F501811102
:1035D00005C046865786608A718A12C086819781A7
:1035E000A085B185A3019201281B390B4A0B5B0B07
:1035F000DA01C90189333AE49307A105B10538F02E
:10360000108E178A808191810E94862E5CC0813144
:103610009742A105B10590F4F50182859385A485B3
:10362000B585A3019201281B390B4A0B5B0BDA010C
:10363000C90181319742A105B10538F1F5018685AF
:103640009785A089B189A3019201281B390B4A0BE8
:103650005B0BDA01C901893B9B40A105B105A8F0CC
:10366000C12CD12CE12CF12C00E010E020E030E066
:1036700040E050E066E0C5010E94932ED5011E9601
:103680004D925D926D927C92519771E091C0232B87
:10369000E1F7F50146855785608971898823A9F08E
:1036A000441A550A660A770AF9EB4F16FBE05F06E3
:1036B0006104710450F3D5018D919C910E94862E76
:1036C000F501108E178A70E073C0D301C201841B0C
:1036D000950BA60BB70B89389341A105B105A8F24C
:1036E000D5018D919C910E94862EF501008111815A
:1036F000D80118966D917C9119978D919C91119795
:103700001A964D915C911B97DC01ED91FC9161152E
:10371000710521F00088F189E02D15C00684F78538
:10372000E02D2EE333E03A832983D8011496CD901F
:10373000DD90ED90FC901797CB82DC82ED82FE82CB
:10374000BE016F5F7F4F199571E0019709F070E03E
:10375000F8017487711108C0D5011E964D925D92D3
:103760006D927C92519724C081E090E0F501938B9B
:10377000828B22813381F90101900020E9F7319792
:103780008F01021B130BC12CD12CE12CF12C41E039
:1037900050E062E0C5017CA30E94932EF501828572
:1037A0009385A485B58586879787A08BB18B7CA1EF
:1037B000D50156968C915697815056968C93E2C2BD
:1037C00070E0E0C21A830983DC82CB820C151D05F0
:1037D00008F0E6CED801CD90DD90ED90FC90C401CC
:1037E0000E94063D89819A81B2E7CB16B4E7DB06D9
:1037F000B3E6EB06F10409F0D3CE0E94CD3F603C66
:10380000EFEC7E07E2EE8E07E0E59E0708F4C8CEF7
:10381000B6DBC6CE273309F4C3CE243109F057C234
:10382000D50155967C926E9254976801CE0CDF1CA0
:103830001D8F0C8FDF8ECE8E0C151D0508F037C244
:10384000F80120803180CE014C960E94063DDC01BB
:103850008D919C918C159D0508F029C28C8D9D8DB4
:10386000FC014081413451F401960E94B03F803107
:10387000910554F446E3742E780E08C0CE014C96A0
:103880000E94193D782E02C077247A94F6E72F160D
:10389000F2E73F0609F4B7C198F431E6231632E7A0
:1038A000330609F4B2C044E6241642E7340609F4AC
:1038B0005CC050E725165DE6350609F0E7C135C066
:1038C00064E6261667E7360609F487C076E727160A
:1038D00077E7370609F4B1C181E6281687E738068D
:1038E00009F0D4C1BCC0DC012C91213421F5019632
:1038F0000E94B03F8031910524F536E3F32EF80E97
:10390000CE014C960E94063D0C8D1D8D6BE774E038
:10391000C8010E94CC43892BB9F460E08F2D0E942E
:103920002429CE014C960E94063D8C8D9D8D8C15D0
:103930009D05C8F2BCC1CE014C960E94193DF82EDF
:10394000DFCFFF24FA94DCCF6EE774E0C8010E9459
:10395000CC43892B09F4AFC162E874E0C8010E942E
:10396000CC43892B09F4A7C1A8C19A8A898A1C8AE9
:103970001B8AE0E1F0E0FE8BED8B66E874E0CE019F
:1039800041960E945E06072D10E0B801CE014196D7
:103990000E949606F801EA59FB4F8491F801E05E17
:1039A000FB4FF490F801E652FC4F0491002391F094
:1039B00081110E949F28E02FF0E0EE0FFF1FE054DE
:1039C000FC4FA591B491EC91FE2261E070E0A9F565
:1039D00060E033C060E070E030C0CE014C960E94E1
:1039E000063DDC018D919C918C159D0508F05FC111
:1039F00061E0872D0E942429CE014C960E94193D3A
:103A000061E0892B09F04BC0FCC09A8A898A1C8A24
:103A10001B8AE0E1F0E0FE8BED8B69E874E0CE01FB
:103A200041960E945E06672D70E0CE0141960E948D
:103A30009606872D0E946029BC01CE0141960E9406
:103A400096060B891C890150110929893A89C12CD4
:103A5000D12CE12CF12C40E050E064E125C1CE01F5
:103A60004C960E94063DDC018D919C918C159D0524
:103A700008F01DC161E0872D0E942429CE014C96DB
:103A80000E94193D8C0161E0872D0E9424290115B7
:103A9000110509F4B6C00F3F110529F461E0872D27
:103AA0000E94F52804C1E72DF0E0EA59FB4FE491AC
:103AB0008E2F90E0FC013197E231F10508F09DC0B6
:103AC0008827EE58FF4F8F4F0C949A4284B5806838
:103AD00084BD07BDECC084B5806284BD08BDE7C06D
:103AE000809180008068809380001093890000930B
:103AF0008800DDC0809180008062809380001093F8
:103B00008B0000938A00D3C08091800088608093EE
:103B1000800010938D0000938C00C9C08091B0008C
:103B200080688093B0000093B300C1C08091B00062
:103B300080628093B0000093B400B9C0809190007F
:103B40008068809390001093990000939800AFC014
:103B50008091900080628093900010939B0000936E
:103B60009A00A5C080919000886080939000109387
:103B70009D0000939C009BC08091A0008068809372
:103B8000A0008091A0008F7B8093A0001093A900DB
:103B90000093A8008CC08091A00080628093A00058
:103BA0001093AB000093AA0082C08091A0008860AF
:103BB0008093A0001093AD000093AC0078C080917A
:103BC000200180688093200110932901009328012F
:103BD0006EC08091200180628093200110932B01A0
:103BE00000932A0164C080912001886080932001A5
:103BF00010932D0100932C015AC0003811050CF0D0
:103C00004DCF60E04CCF7982E72DF0E0E038F10550
:103C100008F04DC0EE0FFF1FE455FB4F2591349186
:103C20002115310509F443C0B2E128353B0709F4F9
:103C30003EC0C401F90119953AC0CE014C960E94CC
:103C4000063D8C8D9D8D081B190BE00EF11E9A838D
:103C50008983FC82EB82FE82ED82798AE72DF0E097
:103C6000E038F10520F5EE0FFF1FE455FA4F2591DE
:103C7000349121153105D9F0F2E127353F07B9F02C
:103C8000B401CE014196F901199511C0D5015496A0
:103C90004D915C915597C12CD12CE12CF12C02E077
:103CA00010E020E030E060E0C5010E94932EF501B5
:103CB000158A148A75CC61E031CE6CE874E0C801D5
:103CC0000E94CC43892B09F02CCE62E027CED5018F
:103CD00058961C921E9257978D919C910E94862E09
:103CE0005FCC40E250E0B801D50114968D919C91D3
:103CF00015970E94DC43C4010E94063DFC018081AF
:103D000091818E159F0570F489819A81009729F021
:103D10002B813C818217930790F160E070E0CB012A
:103D20008B0102C000E510E0D5018D919C910E94AD
:103D3000862ED501ED91FC91119714968D919C9151
:103D40001597918780871387028758961C921E9239
:103D500057970E94B729DC01CB0188589341A109EC
:103D6000B109F50182879387A487B58786839783F6
:103D7000A087B18786879787A08BB18B11CC0E94D3
:103D8000CD3FCECF872F2AA13BA10FB6F8943EBFDF
:103D90000FBE2DBFA6960FB6F894DEBF0FBECDBFE7
:103DA000DF91CF911F910F91FF90EF90DF90CF9017
:103DB000BF90AF909F908F907F906F905F904F904B
:103DC0003F902F900895CF93C82F462F61E070E069
:103DD0000E94BA3161E070E08C2F0E94C3318111E2
:103DE000F9CFCF9108950895CF93DF931F92CDB768
:103DF000DEB76983DC01ED91FC910280F381E02D57
:103E000041E050E0BE016F5F7F4F19950F90DF9149
:103E1000CF910895DC01ED91FC91068CF78DE02D9A
:103E2000199591E089270895862F089581E08627C6
:103E30000895CF93DF93FC0124852430D1F0EC0169
:103E40000E946432843181F0882371F0883161F0FE
:103E50008C3161F4E881F9810084F185E02DCE0197
:103E6000199521E0892B19F420E001C021E0822F6F
:103E700001C080E0DF91CF9108950F931F93CF93FE
:103E8000DF931F92CDB7DEB78C01DC01ED91FC9181
:103E90000084F185E02D1995892B51F0BE016F5FEB
:103EA0007F4FF80184850E94F62A898190E002C044
:103EB0008FEF9FEF0F90DF91CF911F910F9108959A
:103EC000FC0184850C941A33CF93DF931F92CDB7F6
:103ED000DEB741E050E0BE016F5F7F4FFC0184859B
:103EE0000E941A33181619061CF4898190E002C04A
:103EF0008FEF9FEF0F90DF91CF910895FC018485A4
:103F0000843011F00C94F83280E090E00895CF9264
:103F1000DF92EF92FF920F931F93CF93DF93CDB772
:103F2000DEB7AF970FB6F894DEBF0FBECDBF7C01F2
:103F30006A010EE313E01A8309831C861B8688EE50
:103F400093E0A0E0B0E08D879E87AF87B88B8CE6CA
:103F500092E09A878987188F0F8B198E1A8E1B8E85
:103F60001C8E84E089A31DA30CA31EA21FA218A669
:103F700019A680910D0690910E06A0910F06B091A2
:103F800010068CA79DA7AEA7BFA78B839C83AD838C
:103F9000BE8318861F82AE014C5D5F4FCE01019635
:103FA0000E94731281309105B1F4D701ED91FC911B
:103FB0000684F785E02D1BA70AA78EA19FA1A8A5BF
:103FC000B9A58CA79DA7AEA7BFA7A601BE01665D38
:103FD0007F4FC7011995AF960FB6F894DEBF0FBE9D
:103FE000CDBFDF91CF911F910F91FF90EF90DF90A8
:103FF000CF90089508958CBD9DBD0895CF92DF9216
:10400000EF92FF921F93CF93DF93FC01148514303E
:1040100089F1EC0180E590E0EEDF68E070E0812F4F
:10402000D2DE0E94B7296B017C01CE010E9464326E
:104030008823B1F061E070E080E090E00E947F2989
:104040000E94B729DC01CB018C199D09AE09BF097B
:10405000883E9340A105B10540F38C850E94093448
:10406000EC85F0E0EE0FFF1FEA59FA4F1182108243
:1040700084E08C87DF91CF911F91FF90EF90DF90CC
:10408000CF9008958F929F92AF92BF92CF92DF927E
:10409000EF92FF920F931F93CF936C015B017A0114
:1040A000FC01C485C43041F481E090E0F6019383C3
:1040B000828380E090E04AC08A014130584010F08D
:1040C00000E018E080E590E096DF8C2F0E94720CF3
:1040D0004C0163E070E08C2F0E94C331873111F0F6
:1040E0008C3121F48016910668F302C000E010E0E4
:1040F00080E590E080DF9801A50160E070E08C2F02
:104100000E940D0C60E270E08C2F5DDE62E070E0DA
:104110008C2F0E94C33184FD0FC063E070E08C2FB0
:104120000E94C331811104C08C2F0E940934BCCF7E
:1041300080E590E060DFEACF40E162E070E08C2F44
:104140000E94BA31012B09F4AFCFC701CF911F9163
:104150000F91FF90EF90DF90CF90BF90AF909F9026
:104160008F900895CF92DF92FF920F931F93CF937A
:10417000DF93FC012485243009F075C06A01EB014E
:104180008C01F12C8F2D0E941C34811103C0F80189
:10419000F48607C08B7F8831D1F3F394F4E0FF12EB
:1041A000F1CFF8018485843009F45DC020910202CA
:1041B000309103022F5F3F4F11F420E030EC309339
:1041C000030220930202409102025091030220E078
:1041D00061E00E94B42AF801F4848A818F3F51F48F
:1041E0008B818F3F91F48C818F3F79F48D818F3F4C
:1041F00061F436C0811109C08B81811106C08C81A8
:10420000811103C08D81882359F1C114D10441F17A
:1042100080E590E0F0DEBE016E5F7F4F8F2D90E075
:10422000982F882744E050E0845F9B4F0E946E2ABD
:10423000B6018F2D0E94173264E070E08F2DC3DD30
:10424000C8010E946432873189F061E070E080E04B
:1042500090E00E947F29C8010E9464328111F0CF52
:1042600084E0F801848780E090E002C081E090E083
:10427000DF91CF911F910F91FF90DF90CF90089524
:104280002F923F924F925F926F927F928F929F9266
:10429000AF92BF92CF92DF92EF92FF920F931F9354
:1042A000CF93DF93CDB7DEB76A970FB6F894DEBF32
:1042B0000FBECDBFDC01ED91FC9111973197E83035
:1042C000F10508F025C28B017C018827EC57FF4FD0
:1042D0008F4F0C949A42FD01C280D380E480F58018
:1042E000A7019601C701B6010E945E40882319F01C
:1042F0006AE974E09DC020E030E0A901C701B60181
:104300000E945E4087FF08C06DE2C8010E948318CA
:10431000F7FAF094F7F8F09420E030E0A901C70133
:10432000B6010E945E40882309F486C0A701960169
:10433000C701B6010E94EE41A70196010E945E40AE
:1043400081117AC061EA74E073C01296ED90FC901E
:1043500013976BE5C8010E948318F701E280F38090
:10436000E114F10451F0B801C701029689DFD701C9
:10437000ED90FC90E114F10411F46DE52EC06CE2B7
:10438000C8010E948318ECCFFD01E280F3806BE747
:10439000C8010E948318D7011296ED90FC901397E4
:1043A00004C06CE2C8010E948318E114F104A1F07A
:1043B000F70162817381C8010E943A196AE3C8015A
:1043C0000E948318B801C70104965ADFD701ED9007
:1043D000FC90E114F10429F76DE7C8010E948318ED
:1043E00097C1FD0162817381C8010E943A1990C191
:1043F00012966D917C9113971BC06DE2C8010E94CB
:104400008318F7014281538164817581C8010E943C
:10441000F6187EC1FD0182819381A481B581892B2B
:104420008A2B8B2B19F464E974E002C06FE874E006
:10443000C8010E94A7186CC120E836E948E15BE496
:10444000C701B6010E94834287FD5AC1412C512CFD
:1044500070E2672E712C812C912CF201EE52FD4FEF
:104460002489358946895789C701B6010E9483424C
:1044700087FD0FC0F201E654FD4F24893589468936
:104480005789C701B6010E94C3406B017C01860CAD
:10449000971C75946794F4E04F1A510888EE4816FB
:1044A0008FEF5806D1F655245A9420E030E0A90148
:1044B000C701B6010E948342181694F52CEA35EC28
:1044C00047E257E3C701B6010E945E40181644F167
:1044D000BFEF5B1629F1952DA4E09A02500111243B
:1044E000F501EE55FD4F2081318142815381C70195
:1044F000B6010E945E4087FF0FC0F501EE52FD4FEE
:104500002081318142815381C701B6010E94C3409D
:104510006B017C0186189708759467945A94D8CFDC
:10452000C701B6010E9457422B013C016B8B7C8B6B
:104530008D8B9E8B46E0A42E80E492E4AFE0B0E049
:104540008F8B988FA98FBA8FBA2CAA24AA94AB0C00
:104550008B899C89AD89BE890A97A105B105E8F0D0
:104560006F89788D898D9A8D2AE030E040E050E0A7
:104570000E94BC412F8B388F498F5A8F6B897C8961
:104580008D899E892AE030E040E050E00E94BC41E5
:104590002B8B3C8B4D8B5E8BD7CFC301B2010E941E
:1045A00062409B01AC01C701B6010E94ED416B0165
:1045B0007C016F89788D898D9A8D0E9462409B0164
:1045C000AC01C701B6010E94C3406B8B7C8B8D8B05
:1045D0009E8B0E9457426B017C010E9462409B01AE
:1045E000AC016B897C898D899E890E94ED419B017C
:1045F000AC010E94EE410E945742C60ED71EE81E33
:10460000F91E8F89988DA98DBA8DC816D906EA062C
:10461000FB0610F19FEF491A590A690A790A8114B9
:10462000910489F0AAE04A1651046104710458F01B
:10463000BFEF8B1A9B0AC12CD12C7601412C512C37
:104640003201439409C0C12CD12C760105C01B1442
:104650007CF469017A01BA94C701B6012AE030E01E
:1046600040E050E00E94BC41672B682B692B79F336
:10467000AB2CB301A201C8010E94F618BB2041F186
:10468000188A3E01E0E16E0E711C7A8A698A2AE07E
:10469000222E312C412C512CAA94BFEFAB1669F07D
:1046A000C701B601A20191010E94BC41605DD30126
:1046B0006E933D0169017A01EFCF69897A896B199F
:1046C00071098EE2FB018293BF01C8010E94A71805
:1046D00097FE0AC06EE974E0C8010E94A718662719
:1046E00077276819790908C08114910489F065E673
:1046F000C8010E948318B401C8010E94CC1808C0E8
:1047000080E2682E712C95E0592E812C912CCDCE13
:104710006A960FB6F894DEBF0FBECDBFDF91CF9182
:104720001F910F91FF90EF90DF90CF90BF90AF90CF
:104730009F908F907F906F905F904F903F902F90C1
:1047400008950F931F93CF93DF938B01FC01C281D8
:10475000D3812097A9F06A817B810115110519F099
:104760006115710521F40617170731F409C0C80156
:104770000E94CC43892B21F00990D881C02DE9CF2C
:10478000CE01DF91CF911F910F910895CF92DF92CB
:10479000EF92FF920F931F93CF93DF938C017B01D6
:1047A000DC011596CD91DC9116976B016C177D0796
:1047B00008F46E01C60106960E942E3EFC01892B6C
:1047C000B1F0D382C282D80113968D919C91149737
:1047D000918380831496FC93EE931397CC0FDD1F87
:1047E0001696DC93CE931597F582E4823696CF0128
:1047F000DF91CF911F910F91FF90EF90DF90CF90BD
:104800000895FF920F931F93CF93DF93EC01F62E41
:1048100088819981FC01A381B481109771F014966D
:10482000ED91FC9115979F012F5F3F4F12964D918F
:104830005C9113974217530750F52C813D81B901C4
:104840006F5F7F4FA3DF8C016A817B8161157105EA
:1048500049F00115110571F04C815D81C8010E947C
:10486000C34303C00115110529F0EC81FD81E00F60
:10487000F11FF0821B830A838C819D8101969D83A9
:104880008C83DF91CF911F910F91FF900895369601
:10489000EA0FFB1F15963C932E93149760838C812F
:1048A0009D81892B49F7FB83EA83E6CFFC01A08138
:1048B000B1818C918D3051F024F489508230B8F55B
:1048C00005C0803219F08F3219F0089511962CC06E
:1048D00011968C9111978A3219F08F32D1F0089588
:1048E0001196B183A083A081B181CD0101969183FE
:1048F000808311968C9111978823C9F08A3299F799
:1049000012968C9112978F3271F713960DC08A30E0
:1049100071F2A081B181CD010196918380831196BE
:104920008C918111F4CF03C0B183A083C0CF0895CF
:104930000F931F93CF93DF931F92CDB7DEB78C01F8
:104940006983B4DFD801ED91FC9111978081698171
:10495000861305C03196ED93FC9381E001C080E0A1
:104960000F90DF91CF911F910F910895AF92BF9259
:10497000CF92DF92EF92FF920F931F93CF93DF932B
:10498000CDB7DEB7C656D1090FB6F894DEBF0FBE5D
:10499000CDBF5C0146E650E064EB76E0CE010196C7
:1049A0000E94F33FC12CD12CE12CF12C06E610E043
:1049B0009E012F5F3F4F40E050E061E1C5010E9442
:1049C000932ECA59DF4F0FB6F894DEBF0FBECDBF8E
:1049D000DF91CF911F910F91FF90EF90DF90CF90DB
:1049E000BF90AF900895CF92DF92EF92FF920F9316
:1049F0001F93CF93DF93CDB7DEB72C970FB6F89404
:104A0000DEBF0FBECDBF8C01CB01BA019ADE7C01A7
:104A1000009709F444C0FC01C480D580F1E0CF16B2
:104A2000D10461F4FC01668177816115710531F073
:104A300089E394E00E94CC43892B69F0F1E0CF1A1E
:104A4000D10882E0C816D10430F4F701668177817D
:104A50006115710531F56AE774E0CE0101966C01CC
:104A60000E94820FDC86CB86CE010B9698878F83BF
:104A70001A861986BE01695F7F4FC701049600DC64
:104A8000F801118210821382128215821482B601FB
:104A9000C8010E94110FC6010E944A0F05C06AE7B3
:104AA00074E0C8010E94820FC8012C960FB6F894DA
:104AB000DEBF0FBECDBFDF91CF911F910F91FF9051
:104AC000EF90DF90CF900895EF92FF921F93CF93D6
:104AD000DF9300D000D0CDB7DEB77C01DC011496A7
:104AE0008D919C9115979A8389831C821B821E82CB
:104AF0001D82C7010296DADED7011296ED91FC9174
:104B000013971081173231F1123221F180ED810FAC
:104B10008A3078F081EA810F8C3158F08FEB810F69
:104B20008A3138F01B3229F083ED810F823008F092
:104B300042C0F70182819381019693838283612F22
:104B4000CE0101965EDED7011296ED91FC9113978E
:104B50001081DCCF3196D7011396FC93EE93129718
:104B6000D7011296ED91FC9113976081662319F19C
:104B7000CF01019613969C938E9312976117D9F0EB
:104B80006C35A9F46181A0E7B4E08C91882339F0F9
:104B9000861303C011966C9102C01296F6CF66235D
:104BA00051F03296D7011396FC93EE931297CE01F3
:104BB000019627DED5CF60E0CE01019622DE8B8103
:104BC0009C8126960FB6F894DEBF0FBECDBFDF9155
:104BD000CF911F91FF90EF9008959F92AF92BF9257
:104BE000CF92DF92EF92FF920F931F93CF93DF93B9
:104BF00000D000D0CDB7DEB7FC019681911112C074
:104C00008091530581110BC01092500510924F05F1
:104C1000109252051092510581E0809353050FE4E4
:104C200015E094C07F019150968300811181B801F5
:104C300084E090E00E944F06009739F0FC01118358
:104C40000083138212828C0111C08091530581115F
:104C50000BC01092500510924F0510925205109201
:104C6000510581E0809353050FE415E06701F2E000
:104C7000CF0ED11C6BE7C6015BDE882309F4C0CFE1
:104C80006DE7C60155DE81115DC086E0982EC70133
:104C90001BDF5C01892B09F4B3CF6AE3C60148DE50
:104CA000882309F4ADCF1A821982BE016F5F7F4F4E
:104CB000C7010E944A0D882309F4A2CFB501C8019B
:104CC00040DDDC01892B59F5F801608171818AE0B2
:104CD00090E00E944F06DC01892B39F011961C925E
:104CE0001E9215961C921E921497F8012281338110
:104CF0002115310551F0F90180819181009711F062
:104D00009C01F9CFB183A08303C0F801B383A283D0
:104D1000109709F475CF1396BC92AE921297FE01CC
:104D200031961496892D01900D928A95E1F76DE7E1
:104D3000C601FEDD811106C06CE2C601F9DD8111FC
:104D4000A6CF5ECFF70186818F5F8683C801269646
:104D50000FB6F894DEBF0FBECDBFDF91CF911F918C
:104D60000F91FF90EF90DF90CF90BF90AF909F900A
:104D70000895FC01538D448D252F30E0842F90E061
:104D8000821B930B541710F0CF9608950197089546
:104D9000FC01918D828D981761F0828DDF01A80F43
:104DA000B11D5D968C91928D9F5F9F73928F90E065
:104DB00008958FEF9FEF0895FC01918D828D9817D4
:104DC00031F0828DE80FF11D858D90E008958FEF11
:104DD0009FEF0895FC01918D228D892F90E0805CDA
:104DE0009F4F821B91098F73992708958EE695E056
:104DF000F1DF21E0892B09F420E0822F0895FC01E6
:104E0000848DDF01A80FB11DA35ABF4F2C91848D53
:104E100090E001968F739927848FA689B7892C9388
:104E2000A089B1898C9180648C93938D848D981323
:104E300006C00288F389E02D80818F7D80830895EC
:104E4000EF92FF920F931F93CF93DF93EC0181E0DA
:104E5000888F9B8D8C8D981305C0E889F989808196
:104E600085FD23C0F62E0B8D10E00F5F1F4F0F73D3
:104E70001127E02E8C8DE8120BC00FB607FCFACF7D
:104E8000E889F989808185FFF5CFCE01B8DFF2CFBF
:104E90008B8DFE01E80FF11DE35AFF4FF0820B8F5F
:104EA000EA89FB898081806207C0EE89FF8960837F
:104EB000E889F98980818064808381E090E0DF91D6
:104EC000CF911F910F91FF90EF900895CF93DF93B3
:104ED000EC01888D8823C1F0EA89FB89808185FDFA
:104EE00005C0A889B9898C9186FD0EC00FB607FC54
:104EF000F5CF808185FFF2CFA889B9898C9185FF94
:104F0000EDCFCE017CDFE8CFDF91CF91089580E037
:104F100090E0892B19F06ADF811125C080E090E0D4
:104F2000892B41F080E090E0892B21F00E94000065
:104F300081111CC080E090E0892B41F080E090E07E
:104F4000892B21F00E940000811113C080E090E0C5
:104F5000892BA1F080E090E0892B81F00E94000075
:104F600081110AC008950E940000D8CF0E9400005D
:104F7000E1CF0E940000EACF0C94000008953FB7F3
:104F8000F8948091620590916305A0916405B091B9
:104F9000650526B5A89B05C02F3F19F00196A11DF8
:104FA000B11D3FBFBA2FA92F982F8827820F911DBF
:104FB000A11DB11DBC01CD0142E0660F771F881F06
:104FC000991F4A95D1F708958F929F92AF92BF9201
:104FD000CF92DF92EF92FF920F931F93CF93DF93C5
:104FE0007C01EB016C0182E0C80ED11C4701E5E0B9
:104FF0008E0E911C00E010E0F60141916F0150E02F
:1050000060E070E02AE0CE010E9498345C01E88103
:10501000F9810190F081E02D6EE2CE0119958A0DA3
:105020009B1D080F191FC814D90431F7F7014581DA
:1050300050E060E070E02AE0CE010E949834800FDA
:10504000911FDF91CF911F910F91FF90EF90DF9013
:10505000CF90BF90AF909F908F9008950E94A143F2
:105060002EE333E0FC0131832083FB014081518139
:1050700062817381FC014283538364837583089545
:105080001F920F920FB60F9211240BB60F922F930F
:105090003F934F935F936F937F938F939F93AF93C0
:1050A000BF93EF93FF938EE695E0A9DEFF91EF911A
:1050B000BF91AF919F918F917F916F915F914F9130
:1050C0003F912F910F900BBE0F900FBE0F901F902E
:1050D00018951F920F920FB60F9211240BB60F92D4
:1050E0002F938F939F93EF93FF93E0917E05F09121
:1050F0007F058081E0918405F091850582FD12C0D5
:105100009081809187058F5F8F732091880582172A
:1051100051F0E0918705F0E0E259FA4F958F8093C6
:10512000870501C08081FF91EF919F918F912F9111
:105130000F900BBE0F900FBE0F901F90189590E030
:10514000FC013197E231F10508F04EC08827E457A1
:10515000FF4F8F4F0C949A42809180008F7703C04D
:10516000809180008F7D80938000089580918000E1
:10517000877FF9CF84B58F7702C084B58F7D84BDDA
:1051800008958091B0008F7703C08091B0008F7D2B
:105190008093B0000895809190008F7707C0809130
:1051A00090008F7D03C080919000877F8093900056
:1051B00008958091A0008F7707C08091A0008F7D17
:1051C00003C08091A000877F8093A0000895809104
:1051D00020018F7707C0809120018F7D03C08091CF
:1051E0002001877F8093200108951F93CF93DF9341
:1051F000282F30E0F901EA59FB4F8491F901E05E74
:10520000FB4FD491F901E652FC4FC491CC23C1F07D
:10521000162F811194DFEC2FF0E0EE0FFF1FE45EFC
:10522000F84FA591B4918FB7F894111105C09C91D6
:10523000ED2FE095E92302C0EC91ED2BEC938FBFAD
:10524000DF91CF911F910895CF93DF9390E0FC0100
:10525000E05EFB4F2491FC01E652FC4F84918823D1
:1052600061F190E0880F991FFC01EA5BFE4FC59148
:10527000D491FC01E45EF84FA591B491611109C08D
:105280009FB7F8948881209582238883EC912E2300
:105290000BC0623061F49FB7F8943881822F8095FB
:1052A00083238883EC912E2B2C939FBF06C08FB74E
:1052B000F894E8812E2B28838FBFDF91CF9108953A
:1052C000863308F0865390917B00282F2870977FB3
:1052D000922B90937B008770806480937C008091F8
:1052E0007A00806480937A0080917A0086FDFCCFFA
:1052F000809178002091790090E0922B08958F9210
:105300009F92AF92BF92CF92DF92EF92FF926B018A
:105310007C0135DE4B015C01C114D104E104F104D0
:10532000E9F02DDEDC01CB0188199909AA09BB0936
:10533000883E9340A105B10578F321E0C21AD10857
:10534000E108F10888EE880E83E0981EA11CB11CCC
:10535000C114D104E104F10421F7DECFFF90EF90F6
:10536000DF90CF90BF90AF909F908F9008952FB710
:10537000F89460915E0570915F0580916005909151
:1053800061052FBF08951F920F920FB60F9211243F
:105390002F933F938F939F93AF93BF9380915E051D
:1053A00090915F05A0916005B091610530915D0518
:1053B00023E0230F2D3720F40196A11DB11D05C058
:1053C00026E8230F0296A11DB11D20935D05809351
:1053D0005E0590935F05A0936005B0936105809191
:1053E000620590916305A0916405B09165050196F1
:1053F000A11DB11D8093620590936305A093640580
:10540000B0936505BF91AF919F918F913F912F917F
:105410000F900FBE0F901F9018952C9A08952C98FE
:1054200008951F93CF93DF93182F66E270E0ABD7F8
:10543000C82FD0E067E270E0812FA5D7DC2FCC2702
:105440009E01282BC901DF91CF911F9108951F93D1
:10545000CF93DF93182F60E270E095D7C82FD0E08C
:1054600061E270E0812F8FD7DC2FCC279E01282BA3
:10547000C901DF91CF911F9108958EBD00000DB439
:1054800007FEFDCF8EB50895CF92DF92EF92FF9287
:105490000F931F93CF93DF93EC017A018B016C0183
:1054A000C40ED51ECC15DD0579F0B9DF8FE0E5DF40
:1054B0008D2FE3DF8C2FE1DF219680E0DEDFF80126
:1054C00081938F01AADFEECFC701DF91CF911F91AA
:1054D0000F91FF90EF90DF90CF900895CF92DF92E1
:1054E000EF92FF920F931F93CF93DF93EC017A011A
:1054F0008B016C01C40ED51ECC15DD0571F08FDF5C
:1055000080EFBBDF8D2FB9DF8C2FB7DF2196F8013D
:1055100081918F01B2DF81DFEFCFC701DF91CF91A2
:105520001F910F91FF90EF90DF90CF9008951F9300
:10553000CF93DF931F921F92CDB7DEB7182F6A83E8
:1055400099836DDF80EF99DF9981892F96DF812F15
:1055500094DF6A81862F91DF60DF81E00F900F90EA
:10556000DF91CF911F910895FF920F931F93CF93D7
:10557000DF931F921F92CDB7DEB7F82E8A012A83E0
:1055800069830E94093480E590E00E94FB1F2A8114
:105590006981462F422B60E070E08F2DEBD601151C
:1055A000110551F400915B0510915C050F5F1F4FD1
:1055B00010935C0500935B05412F64E070E08F2D34
:1055C000D9D6402F65E070E08F2DD4D661E070E031
:1055D0008F2D0E94E31E0E94FA1F81E00F900F9012
:1055E000DF91CF911F910F91FF9008951F93CF935B
:1055F000DF931F921F92CDB7DEB7182F80E590E0A2
:1056000069837A830E94FB1F21E041E050E06981B9
:105610007A81812F0E948E0C0E94FA1F81E090E017
:105620000F900F90DF91CF911F9108950F931F93CB
:10563000CF93DF9300D000D0CDB7DEB78B0161E010
:105640008DE0D3DDF801808191810E94B03F11E0AF
:10565000892B09F410E061E061278EE0C6DD812F1F
:105660000E94AC04412F68E170E0CE0101960E94D7
:10567000BE04BE016F5F7F4F88E296E00E94063550
:10568000CE0101960E944A0F88E296E00E94BA0677
:10569000412F68E170E0CE0101960E94BE04BE0178
:1056A0006F5F7F4F8EE695E00E940635CE01019632
:1056B0000E944A0F65E070E080E090E020DE60E04C
:1056C0008DE093DD26960FB6F894DEBF0FBECDBFFA
:1056D000DF91CF911F910F9108950F931F93CF9357
:1056E000DF9300D000D0CDB7DEB78B0161E08DE055
:1056F0007CDDF801808191810E94B03F11E0892B0F
:1057000009F410E061E061278FE06FDD812F0E94D6
:10571000AC04412F67E170E0CE0101960E94BE0407
:10572000BE016F5F7F4F88E296E00E940635CE0192
:1057300001960E944A0F88E296E00E94BA06412F25
:1057400067E170E0CE0101960E94BE04BE016F5F6A
:105750007F4F8EE695E00E940635CE0101960E94AD
:105760004A0F65E070E080E090E0C9DD60E08DE028
:105770003CDD26960FB6F894DEBF0FBECDBFDF919D
:10578000CF911F910F9108950F931F93CF93DF93A4
:1057900000D000D0CDB7DEB78B0161E08DE025DD14
:1057A000F801808191810E94B03F11E0892B09F4BA
:1057B00010E061E0612780E118DD812F0E94AC04D8
:1057C000412F66E170E0CE0101960E94BE04BE0149
:1057D0006F5F7F4F88E296E00E940635CE0101960A
:1057E0000E944A0F88E296E00E94BA06412F66E1C5
:1057F00070E0CE0101960E94BE04BE016F5F7F4F34
:105800008EE695E00E940635CE0101960E944A0F71
:1058100065E070E080E090E072DD60E08DE0E5DC66
:1058200026960FB6F894DEBF0FBECDBFDF91CF91A5
:105830001F910F9108950F931F93CF93DF9300D083
:1058400000D0CDB7DEB78B0161E08DE0CEDCF80192
:10585000808191810E94B03F11E0892B09F410E012
:1058600061E0612781E1C1DC812F0E94AC04412FFE
:1058700065E170E0CE0101960E94BE04BE016F5F3B
:105880007F4F88E296E00E940635CE0101960E9485
:105890004A0F88E296E00E94BA06412F65E170E067
:1058A000CE0101960E94BE04BE016F5F7F4F8EE65F
:1058B00095E00E940635CE0101960E944A0F65E0F0
:1058C00070E080E090E01BDD60E08DE08EDC2696ED
:1058D0000FB6F894DEBF0FBECDBFDF91CF911F9101
:1058E0000F9108950F931F93CF93DF9300D000D0B3
:1058F000CDB7DEB78B0161E08DE077DCF801808108
:1059000091810E94B03F11E0892B09F410E061E021
:10591000612782E16ADC812F0E94AC04412F64E19F
:1059200070E0CE0101960E94BE04BE016F5F7F4F02
:1059300088E296E00E940635CE0101960E944A0F49
:1059400088E296E00E94BA06412F64E170E0CE0141
:1059500001960E94BE04BE016F5F7F4F8EE695E008
:105960000E940635CE0101960E944A0F65E070E064
:1059700080E090E0C4DC60E08DE037DC26960FB676
:10598000F894DEBF0FBECDBFDF91CF911F910F9175
:1059900008950F931F93CF93DF9300D000D0CDB71E
:1059A000DEB78B0161E08DE020DCF8018081918120
:1059B0000E94B03F11E0892B09F410E061E06127FB
:1059C00083E113DC812F0E94AC04412F63E170E07E
:1059D000CE0101960E94BE04BE016F5F7F4F88E238
:1059E00096E00E940635CE0101960E944A0F88E299
:1059F00096E00E94BA06412F63E170E0CE01019665
:105A00000E94BE04BE016F5F7F4F8EE695E0FED719
:105A1000CE0101960E944A0F65E070E080E090E0C0
:105A20006EDC60E08DE0E1DB26960FB6F894DEBF19
:105A30000FBECDBFDF91CF911F910F9108950F93AE
:105A40001F93CF93DF9300D000D0CDB7DEB78B018B
:105A500061E08DE0CADBF801808191810E94B03F56
:105A600011E0892B09F410E061E0612784E1BDDBDE
:105A7000812F0E94AC04412F62E170E0CE010196BB
:105A80000E94BE04BE016F5F7F4F88E296E0BED7E2
:105A9000CE0101960E944A0F88E296E00E94BA0663
:105AA000412F62E170E0CE0101960E94BE04BE016A
:105AB0006F5F7F4F8EE695E0A9D7CE0101960E94D9
:105AC0004A0F65E070E080E090E019DC60E08DE076
:105AD0008CDB26960FB6F894DEBF0FBECDBFDF91EC
